:020000040800F2
:1000000000000820A90C0008750C0008770C0008F7
:10001000790C00087B0C00087D0C00080000000033
:100020000000000000000000000000007F0C00083D
:10003000810C000800000000830C0008850C0008FB
:10004000F90C0008F90C0008F90C0008F90C00087C
:10005000F90C0008F90C0008F90C0008F90C00086C
:10006000F90C0008F90C0008F90C0008F90C00085C
:10007000F90C0008F90C0008F90C0008F90C00084C
:10008000F90C0008F90C0008F90C0008F90C00083C
:10009000F90C0008F90C0008F90C0008F90C00082C
:1000A000F90C0008F90C0008F90C0008F90C00081C
:1000B000F90C0008F90C0008F90C0008F90C00080C
:1000C000F90C0008F90C0008F90C0008F90C0008FC
:1000D000F90C0008F90C0008F90C0008F90C0008EC
:1000E000F90C0008F90C0008F90C0008F90C0008DC
:1000F000F90C0008F90C0008F90C0008F90C0008CC
:10010000F90C0008F90C0008F90C0008F90C0008BB
:10011000F90C0008F90C0008F90C0008F90C0008AB
:10012000F90C0008F90C0008F90C0008F90C00089B
:10013000F90C0008F90C0008F90C0008F90C00088B
:10014000F90C0008F90C0008F90C0008F90C00087B
:10015000F90C0008F90C0008F90C0008F90C00086B
:10016000F90C0008F90C0008F90C0008F90C00085B
:10017000F90C0008F90C0008F90C00080000000058
:10018000F90C0008F90C0008F90C0008F90C00083B
:10019000F90C0008F90C0008F90C0008F90C00082B
:1001A000F90C0008F90C0008F90C0008F90C00081B
:1001B000F90C0008F90C0008F90C0008F90C00080B
:1001C000F90C0008F90C0008F90C0008F90C0008FB
:1001D000F90C0008F90C0008F90C0008F90C0008EB
:1001E000F90C0008F90C0008F90C0008F90C0008DB
:0C01F000F90C0008F90C0008EE11AA55EB
:1001FC0010B5054C237833B9044B13B10448AFF355
:10020C0000800123237010BD1000002000000000AE
:10021C00505F000808B5034B1BB103490348AFF30B
:10022C00008008BD0000000014000020505F000892
:10023C0008B503F0FDFB08BD08B503F007FC08BDCD
:10024C0008B500F0BDF8012008BD08B54FF4AF703B
:10025C0000F072F808BD08B500F074F808BD000095
:10026C0000B587B00023009301930293039304938A
:10027C0005936946084805F054FD40B9009B3BB115
:10028C009DF8083013F0100F02D1012000E000207F
:10029C0007B05DF804FB00BF785F000800487047AA
:1002AC00785F000808B50748002380F830320A222E
:1002BC00054905F04BF818B9024B012283F830229E
:1002CC0008BD00BF2C000020685F000808B5064B75
:1002DC0093F83032012B03D0044805F044FD08BDDF
:1002EC00014805F0BDFBF7E72C000020785F000803
:1002FC0008B5054B93F83032012B00D008BD0248ED
:10030C0005F0AEFBFAE700BF2C00002008B5094B46
:10031C0093F83032012B00D008BD064905F0AAFD38
:10032C000028F9DA0348002380F8303205F098FBF6
:10033C00F2E700BF2C000020014B1880704700BF73
:10034C006202002010B503F023FB164B1B68984289
:10035C0023D3154B1B7813B9144B1B7863B1144C76
:10036C00112322888021292000F0A0F92388B3F5DD
:10037C00C77F01D2013323800E4B1B7873B90D4B11
:10038C0001221A700C4B4FF400429A6103F000FBEF
:10039C000A4B1B880344034A136010BD054B002213
:1003AC001A70F3E768020020600200206E02002041
:1003BC006C02002064020020000402406202002053
:1003CC0070470000054B064A1A6000225A609A607A
:1003DC00DA601A615A619A61704700BF80F3042099
:1003EC00002C0140F0B583B004460D4616461F465E
:1003FC00164B4FF440325A60154B9B6C022B0CD0B1
:10040C00124B00229A601148089BC360114B036089
:10041C0000F076FD28B103B0F0BD0C4B02229A60BF
:10042C00F1E72146094800F061FE0028F3D100975E
:10043C0033462A460999054800F09CFD0028EAD16C
:10044C000A21024800F0B2FDE5E700BFACF404203D
:10045C0004F4042000B00240F0B58FB000240A94DC
:10046C000B940C940D94394B1A6B42F004021A63E2
:10047C001A6B02F004020792079A1A6B42F480720C
:10048C001A631A6B02F480720692069A1A6B42F087
:10049C0020021A631A6B02F020020592059A1A6B5D
:1004AC0042F080021A631A6B02F080020492049AE2
:1004BC001A6B42F001021A631A6B02F001020392EA
:1004CC00039A1A6B42F002021A631A6B02F00202D0
:1004DC000292029A1A6B42F008021A631A6B02F02B
:1004EC0008020192019A1A6B42F040021A631B6BCC
:1004FC0003F040030093009B154F4FF00043BB618A
:10050C00144D4FF08053AB614FF400530893099492
:10051C000C9408A9104802F0D5FA4FF40043089344
:10052C00012609960A940B940C9408A9384602F0FB
:10053C00C9FA4FF48053089309960A940B940C94BF
:10054C0008A9284602F0BEFA0FB0F0BD00380240F0
:10055C0000040240000C02400008024030B58FB08D
:10056C003422002101A805F0E5FC254C254B236025
:10057C004FF0004363600025A560E56025613223E0
:10058C0063611323A3615D23E3611F23236240F2A4
:10059C003D23636240F22F13A36240F24523E362D2
:1005AC0040F23713236384F8345084F8355084F8C0
:1005BC003650204601F090F901954FF4F0720292FA
:1005CC0003954FF48873049302210591FF21069142
:1005DC0007914FF480610891052109910A490A910C
:1005EC000B920C938DF834508DF835508DF83650A5
:1005FC002A4601A9204601F0E9F90FB030BD00BF31
:10060C0004F40420006801407002002008B506487C
:10061C0008230360C82343610523C3614FF480336F
:10062C00C36201F001FA08BD70E40420014B186E9E
:10063C00704700BF04F40420014B586E704700BF94
:10064C0004F4042070B582B00546084BDE6DFFF74C
:10065C00EDFF0446FFF7F0FF0346019500200090E4
:10066C0022463146FFF7BEFE02B070BD04F40420F2
:10067C0038B50C4C0C4B2360002565600223A3603D
:10068C00E560A563E36325646564A564E5642046C1
:10069C0000F036FC0121204600F028FD2846FFF72B
:1006AC00D1FF38BDACF4042000B002402DE9F0417C
:1006BC0082B080460C4615461F46124B9B6C022B93
:1006CC0017D0104BDE6DFFF7B1FF00FB048406EB77
:1006DC008404FFF7ABFF4FF0FF230193401B009006
:1006EC003B462A4621460020FFF77CFE02B0BDE8BF
:1006FC00F081044BDE6DFFF799FF00FB048406EBE1
:10070C004404E6E704F40420F0B583B007460C4635
:10071C0016460F4B9B6C022B11D00D4BDD6DFFF76A
:10072C0085FF00FB047105EB81010A4B019300204E
:10073C00009001233246FFF755FE03B0F0BD044B89
:10074C00DD6DFFF773FF00FB047105EB4101ECE776
:10075C0004F404200000FFFFF0B583B007460C46FC
:10076C001646114B9B6C022B15D00F4BDD6DFFF712
:10077C005DFF00FB047405EB8404FFF757FF0B4B84
:10078C000193013800903346012221460020FFF7E7
:10079C0029FE03B0F0BD044BDD6DFFF747FF00FBF6
:1007AC00047405EB4404E8E704F404200000FFFFA4
:1007BC0008B5474A136823F00F0343F0070313608F
:1007CC00434B1B6803F00F03072BF9D1414B1A68FD
:1007DC0042F440421A601A6842F480321A603E4A6F
:1007EC00136843F4803313603B4B1B6813F4003FD6
:1007FC00FAD0394B5A6839491140394A0A435A6080
:10080C005A6838491140384A0A435A605A6837497D
:10081C001140374A0A435A60D3F8882035491140B1
:10082C00354A0A43C3F88820D3F88C2022F440328E
:10083C00C3F88C201A6842F080721A60264B1B6831
:10084C0013F0007FFAD0244A136843F080531360EE
:10085C00214B1B6813F0005FFAD01F4B9A6822F0F3
:10086C00F0029A609A6822F4E05242F4A0529A6024
:10087C009A6822F4604242F400429A609A6822F02C
:10088C00030242F002029A60134B9B6803F00C03C4
:10089C00082BF9D1194802F04FFD002000F03EFA68
:1008AC000D4BD3F8902022F00062C3F89020D3F8BF
:1008BC00902022F00062C3F89020D3F8902022F010
:1008CC008052C3F8902000210D48FFF79FFE08BD11
:1008DC00003C024000700040003802400080BCFF29
:1008EC00196C40000080BFF0196C4009C0FFBFFFBD
:1008FC00190040003F80FF8F0030002000E6DF0C25
:10090C0004F4042008B500F02FFAFFF751FFFFF7AD
:10091C00A3FDFFF757FD02F015FDFFF71FFEFFF7D4
:10092C00A7FEFFF785FCFFF787FCFCE782B00A4BBC
:10093C001A6C42F080521A641A6C02F080520092C7
:10094C00009A5A6C42F480425A645B6C03F4804304
:10095C000193019B02B07047003802400268094BBA
:10096C009A4200D0704782B0A3F5F0431A6B42F460
:10097C0000021A631B6B03F400030193019B02B08A
:10098C00704700BF00B002402DE9F0418EB000234B
:10099C0009930A930B930C930D930268654B9A423F
:1009AC0002D00EB0BDE8F08103F550435A6C42F012
:1009BC0080625A645A6C02F080620092009A1A6B40
:1009CC0042F480721A631A6B02F480720192019ADB
:1009DC001A6B42F020021A631A6B02F02002029288
:1009EC00029A1A6B42F004021A631A6B02F00402A8
:1009FC000392039A1A6B42F080021A631A6B02F08C
:100A0C0080020492049A1A6B42F001021A631A6B68
:100A1C0002F001020592059A1A6B42F002021A6367
:100A2C001A6B02F002020692069A1A6B42F040020E
:100A3C001A631A6B02F040020792079A1A6B42F083
:100A4C0008021A631B6B03F008030893089B40F21F
:100A5C00E163099302250A9500240B940C940E264D
:100A6C000D96DFF8EC8009A9404600F06FFD4FF4BD
:100A7C00006309930A950B940C9409270D9709A907
:100A8C00404600F063FD4FF4806309930A950B9484
:100A9C000C940D9609A9284800F058FD01230993E0
:100AAC000A950B940C940D9609A9244800F04EFD60
:100ABC00102309930A950B940C940D9609A92048C0
:100ACC0000F044FD602309930A950B940C940D9649
:100ADC0009A91C4800F03AFD032309930A950B94CD
:100AEC000C940D9709A9184800F030FD4FF40C63D5
:100AFC0009930A950B940C940D96A8F5006809A916
:100B0C00404600F023FD082309930A950B940C949E
:100B1C000D9609A90D4800F019FD4FF4A053099347
:100B2C000A950B940C940D9709A9404600F00EFD04
:100B3C0037E700BF00680140001402400008024083
:100B4C00001C02400000024000040240000C024065
:100B5C0000200240F0B589B0002303930493059361
:100B6C000693079302681F4B9A4201D009B0F0BD5F
:100B7C0003F586335A6C42F400625A645A6C02F4E0
:100B8C0000620092009A1A6B42F004021A631A6B0C
:100B9C0002F004020192019A1A6B42F008021A63E5
:100BAC001B6B03F008030293029B4FF488530393CF
:100BBC000227049700260596032506950C24079416
:100BCC000DEB0401084800F0C1FC042303930497C7
:100BDC000596069507940DEB0401044800F0B6FC4D
:100BEC00C4E700BF002C014000080240000C02408A
:100BFC0010B501F0FFFF174C4FF40003A36116482A
:100C0C0001F0A2FE154801F09FFE204601F09CFE6B
:100C1C00134801F099FE134B1A6C22F480221A64CB
:100C2C001A6B22F008021A631A6B22F004021A6380
:100C3C001A6B22F002021A631A6B22F001021A6379
:100C4C001A6C22F080521A645A6C22F480425A6454
:100C5C0010BD00BF00040240000C0240000802401E
:100C6C0000000240003802407047FEE7FEE7FEE756
:100C7C00FEE770477047704708B500F081F808BD73
:100C8C00054BD3F8882042F47002C3F888204FF04B
:100C9C0000629A60704700BF00ED00E0DFF834D0CE
:100CAC00002103E00C4B5B58435004310B480C4BB8
:100CBC0042189A42F6D30B4A02E0002342F8043B56
:100CCC00094B9A42F9D3FFF7DBFF05F00FF9FFF759
:100CDC0019FE7047000008209463000800000020F3
:100CEC0010000020100000208CF90420FEE700000A
:100CFC0010B5094B4FF0FF321A6200241C625A6285
:100D0C005C621A611C615A615C619A619C61FFF7BB
:100D1C006FFF204610BD00BF0038024010B50446DE
:100D2C000E4B18784FF47A73B3FBF0F30C4A10683F
:100D3C00B0FBF3F000F088F868B90F2C01D9012052
:100D4C000AE0002221464FF0FF3000F04BF8054B33
:100D5C001C60002000E0012010BD00BF040000203A
:100D6C00000000200800002008B5032000F028F83F
:100D7C000020FFF7D3FFFFF7D9FD002008BD0000CE
:100D8C00034A1168034B1B780B441360704700BF78
:100D9C0004F504200400002038B5044602F000FEDF
:100DAC000546B4F1FF3F02D0044B1B781C4402F003
:100DBC00F7FD401BA042FAD338BD00BF0400002051
:100DCC000649CB6823F4E0631B041B0C000200F4FF
:100DDC00E0600343024A1A43CA60704700ED00E02A
:100DEC000000FA0530B4154BDB68C3F30223C3F1E2
:100DFC000704042C28BF04241D1D062D14D9033B05
:100E0C004FF0FF3505FA04F421EA0401994005FA84
:100E1C0003F322EA03031943002807DB0901C9B2D3
:100E2C00074B195430BC70470023E9E700F00F0062
:100E3C000901C9B2034B1954F4E700BF00ED00E0FF
:100E4C0000E400E014ED00E00138B0F1807F0AD23C
:100E5C00064B5860064AF02182F823100020986057
:100E6C0007221A6070470120704700BF10E000E0B5
:100E7C0000ED00E070B40668746C04F04044039D0F
:100E8C0045EA03452C4374640368DA634368B3F59D
:100E9C00403F03D00368D96070BC704701F07F46B7
:100EAC0001F47F0301F47F45CAB2846894B1012C2C
:100EBC000ED0022C11D0032C17D0360F1B0D2D0B7E
:100ECC00190241EA051141EA063141EA121101E029
:100EDC0021F07F4103689963DEE7DB0CAD0AD90290
:100EEC0041EA451141EAD201F4E7F60FDB0CED0AB9
:100EFC00990241EA451141EAC63141EAD201E9E7DA
:100F0C00002832D010B5044690F8513043B3022378
:100F1C0084F851302268136823F4403361680B4322
:100F2C0013602268536B23F00703A1680B435363D0
:100F3C002268116C0E4B0B40E1680B431364216863
:100F4C004B6B23F4401320696269520542EA00524C
:100F5C0013434B6300206065012384F8513010BDAE
:100F6C0080F85030FFF7FAFCD1E70120704700BF42
:100F7C0000C0FFFF10B582B0044690F85000012865
:100F8C0012D0012084F85000022084F851000498FB
:100F9C0000902046FFF76EFF2268136843F00103B0
:100FAC001360002002B010BD0220FBE770B582B0C8
:100FBC0004460D460023019303681B6813F0010FD0
:100FCC0011D12268D369526A134313F0200F47D111
:100FDC00236812229A60012384F85130002084F88F
:100FEC00500002B070BD02F0DBFC064623685A6864
:100FFC0012F0020FE5D15A680192019A12F0210FFA
:10100C0014D1B5F1FF3FF1D002F0CAFC801BA8420D
:10101C0001D8002DEAD1636D43F0200363650320F2
:10102C0084F85100002384F85030DAE7019A12F06A
:10103C00200F03D0626D42F002026265019A12F039
:10104C00010F03D0626D42F00102626521229A60A9
:10105C00042384F85130002384F850300120C0E779
:10106C0002F09EFC064623685A6812F0100FAFD1AE
:10107C005A680192019A12F0290F14D1B5F1FF3F71
:10108C00F1D002F08DFC801BA84201D8002DEAD1D2
:10109C00636D43F020036365032084F85100002343
:1010AC0084F850309DE7019A12F0080F03D0626D5E
:1010BC0042F004026265019A12F0200F03D0626DB7
:1010CC0042F002026265019A12F0010F03D0626DC8
:1010DC0042F00102626529229A60042384F851309F
:1010EC00002384F8503001207BE7000090F850304A
:1010FC00012B67D030B4012380F85030022380F8E4
:10110C00513001EB410200EBC202546A936A44EA8B
:10111C000343156B43EA0553526B43EA4253093CB4
:10112C00012C21D901EB410200EBC202D26A43EA45
:10113C00026361BB0468656A234A2A4013436362F5
:10114C00026801EB410300EBC3031C6A94615B6A08
:10115C00093B012B11D9012380F85130002380F871
:10116C005030184630BC704701EB410200EBC20214
:10117C00D26A02F07F421343DBE701EB410100EB43
:10118C00C101CB6A026823F07F439362E3E70468F2
:10119C00E5690D4A2A401343E361026801EB410300
:1011AC0000EBC3031C6A14615B6A093B012BD2D8A8
:1011BC0001EB410100EBC101CB6A026823F07F43D4
:1011CC001362C8E702207047F0FFCC0010B40A4944
:1011DC000C6924F440740C610C6944F440740C6187
:1011EC000C6944F001040C6102604360BFF34F8F43
:1011FC005DF8044B704700BF003C0240084B1A6975
:10120C0022F440721A611A6942F400721A611A6966
:10121C0042F001021A610160BFF34F8F704700BFAB
:10122C00003C0240084B1A6922F440721A611A6998
:10123C0042F480721A611A6942F001021A6101804B
:10124C00BFF34F8F704700BF003C0240074B1A6939
:10125C0022F440721A611A691A611A6942F0010289
:10126C001A610170BFF34F8F704700BF003C024002
:10127C001A4BDB6813F0020F04D0194A936943F040
:10128C0020039361154BDB6813F0100F04D0144A44
:10129C00936943F010039361104BDB6813F0200F3C
:1012AC0004D00F4A936943F0080393610B4BDB683E
:1012BC0013F0400F04D00A4A936943F0040393617E
:1012CC00064BDB6813F0800F04D0054A936943F09A
:1012DC0002039361014BF222DA607047003C02403A
:1012EC0008F50420094B1B69002B01DB002070471B
:1012FC00064B074A5A6002F188325A601B69002B70
:10130C0001DB002070470120704700BF003C024009
:10131C0023016745034A136943F00043136100201E
:10132C00704700BF003C024038B50446154B002204
:10133C009A6102F035FB0546134BDB6813F4803FD2
:10134C000AD0B4F1FF3FF7D024B102F029FB401BC7
:10135C00A042F1D903200DE00B4BDB6813F0F20F28
:10136C0009D1094BDB6813F0010F08D0064B0122A1
:10137C00DA60002038BDFFF77BFF0120FAE7002080
:10138C00F8E700BF08F50420003C0240F8B516460B
:10139C001B4A127D012A31D004460D461F46184BBC
:1013AC0001221A754CF25030FFF7BEFF90B9032C96
:1013BC0007D8DFE804F00213181DF1B22846FFF736
:1013CC0045FF4CF25030FFF7AFFF0E4A136923F084
:1013DC00010313610A4B00221A75F8BDB1B22846FD
:1013EC00FFF720FFEDE731462846FFF707FFE8E758
:1013FC0032463B462846FFF7E9FEE2E70220ECE7DF
:10140C0008F50420003C0240114A136923F4407390
:10141C001361032910D0022914D00D4A136943F02B
:10142C00040313610A4A136943EA002040F4803034
:10143C001061BFF34F8F7047116948F204030B43DF
:10144C001361EFE7024A136943F400431361E9E7C0
:10145C00003C024010B449B1012926D0022902D027
:10146C004FF4407403E04FF4007400E000240B28A8
:10147C0000D904300E4B196921F4407119611A69B5
:10148C0022431A611A6922F0F8021A611A6942EAB7
:10149C00C00040F0020018611A6942F480321A61EF
:1014AC00BFF34F8F5DF8044B70474FF48074DEE749
:1014BC00003C0240224B1B7D012B3DD070B50446F5
:1014CC000E461F4B01221A754CF25030FFF72CFFC1
:1014DC00014660BB4FF0FF3333602368012B16D0FD
:1014EC00A568E368A2681344AB4220D9217C284646
:1014FC00FFF7B0FF4CF25030FFF716FF114A13699B
:10150C0023F0FA031361014680B90135E9E76168FC
:10151C00207CFFF779FF4CF25030FFF705FF0146B6
:10152C00084A1069084B0340136100E03560044B16
:10153C0000221A75084670BD02210846704700BF8C
:10154C0008F50420003C0240FB7FFFFF00230F2B1B
:10155C0000F2E380F0B583B039E0092200E000220C
:10156C00B2403A4302346D4E46F824206C4A14685B
:10157C00EA4324EA05064F6817F4803F01D045EA98
:10158C000406674C2660646802EA04064F6817F488
:10159C00003F01D045EA0406614C6660A46802EA8B
:1015AC0004064F6817F4801F01D045EA04065C4C12
:1015BC00A660E46822404E6816F4001F01D045EA8C
:1015CC000402574CE26001330F2B00F2A48001227D
:1015DC009A400C6804EA020532EA0404F3D14C6820
:1015EC00661E112C18BF012E01D9122C12D186683F
:1015FC005F000324BC4026EA0406CC68BC4034439C
:10160C008460466826EA02064C68C4F300129A40CD
:10161C0032434260C7685E000324B440E24327EAC9
:10162C0004078C68B4403C43C4604C68122C18BF4F
:10163C00022C13D1DF08083750F827E003F0070419
:10164C004FEA840C0F2404FA0CF42EEA040E0C69F5
:10165C0004FA0CF444EA0E0440F8274004681440E1
:10166C004A6802F00302B240224302604A6812F058
:10167C00805FA8D02B4A546C44F480445464526C60
:10168C0002F480420192019A9C08A61C234A52F84B
:10169C00267003F0030296000F22B24027EA0207DD
:1016AC00214A90423FF45BAF02F58062904222D017
:1016BC0002F58062904220D002F5806290421ED0EA
:1016CC0002F5806290421CD002F5806290421AD0E2
:1016DC0002F58062904218D002F58062904216D0DA
:1016EC0002F58062904214D002F5806290423FF481
:1016FC0034AF0A2234E7012232E7022230E7032218
:10170C002EE704222CE705222AE7062228E70722E7
:10171C0026E7082224E703B0F0BD704700380140EB
:10172C00003C01400038024000000240F0B54E6819
:10173C000568EB68C3F30B431E44D40105EBC215DB
:10174C00D5F8883003F47043C5F888300B68056809
:10175C00EF68C7F30B473B44013305EBC21543EA73
:10176C000643C5F88830CE680568EB68C3F30A03F6
:10177C001E4405EBC215D5F88C3003F47043C5F844
:10178C008C308B680568EF68C7F30A073B4401335C
:10179C0005EBC21543EA0643C5F88C30036803EB2E
:1017AC00C213D3F8945025F00705C3F8945003687E
:1017BC0003EBC2130D69C3F8945091F831E091F822
:1017CC0032C08F69066806EBC216D6F89C3000252D
:1017DC00C6F89C5091F8303043EA0E2343EA0C4390
:1017EC00066806EBC21643EA0763C6F89C3003682A
:1017FC0003EBC213D3F8986026F0FF06C3F8986089
:10180C00036803EBC2134E69C3F89860036803EBDB
:10181C00C213D3F8A0702E4E3E40C3F8A060CE6920
:10182C000F6A036803EBC2133E43C3F8A06003685E
:10183C0003EBC213D3F8AC60C3F8AC50036803EBF2
:10184C00C2124B6AC2F8AC300B696BB1012B39D0A8
:10185C00022B18BF042B37D0032B37D0072B01D00A
:10186C00012302E0022300E0042302682244D2F8A0
:10187C00B05005F0E025C2F8B0508A6A03FB02F5BF
:10188C004A680E68921B03FB02F30333026822447E
:10189C0043EA0543C2F8B03003682344D3F8B4508C
:1018AC000C4A2A40C3F8B42003682344CA6AC3F81C
:1018BC00B42003681C44D4F8843043F00103C4F80A
:1018CC008430F0BD0323D0E70223CEE70223CCE71C
:1018DC00F8F8FFFF00F8FFFF002872D038B5044677
:1018EC0090F8A130002B67D0022384F8A130226835
:1018FC00936923F07043936121688A696368A068D7
:10190C000343E06803432069034313438B6121685D
:10191C008A682D4B1A408A60656920688268A169C3
:10192C0041EA05410A4382602168CA681A40CA60CC
:10193C00E5692068C268216A41EA05410A43C26030
:10194C0021680A691A400A61656A20680269A16AFD
:10195C0041EA05410A43026121684A6913404B611F
:10196C00E06A21684B69226B42EA004213434B61E7
:10197C0094F8350094F836301B042168CA6A02F0DA
:10198C007F42CA622168CA6A43EA002394F8340091
:10199C0003431343CB622268536B43F00603536338
:1019AC002268936943F0010393610020C4F8A400FA
:1019BC00012384F8A13038BD80F8A030FEF7E4FF95
:1019CC0092E70120704700BF00F800F090F8A030BB
:1019DC00012B27D02DE9F04106460F4694464FF0D7
:1019EC00010880F8A080022380F8A130342404FB85
:1019FC00020438340D460FCD0FC40FCD0FC40FCDDC
:101A0C000FC42B682360624639463046FFF78EFEC2
:101A1C003368C3F8248086F8A180002086F8A000E3
:101A2C00BDE8F08102207047F0B583B0044606682B
:101A3C0016F001060DD0B54B9A6822F400029A609C
:101A4C009A68416B0A439A60436B002B00F05581F6
:101A5C000026256815F4002511D0AC4AD2F88C303C
:101A6C0023F44013E16B0B43C2F88C30E36BB3F5FA
:101A7C00801F00F04481002B00F043810025236877
:101A8C0013F4801F0FD0A14AD2F88C3023F44003FA
:101A9C00216C0B43C2F88C30236CB3F5800F00F033
:101AAC00328103B90125236813F0807F00D0012611
:101ABC0013F0200F40F02C81236813F0100F0CD082
:101ACC00924BD3F88C2022F08072C3F88C20D3F880
:101ADC008C20A16B0A43C3F88C20236813F4804F2D
:101AEC0008D08A4AD2F8903023F44033616E0B430D
:101AFC00C2F89030236813F4004F08D0834AD2F810
:101B0C00903023F44023A16E0B43C2F8903023682D
:101B1C0013F4803F08D07D4AD2F8903023F4401360
:101B2C00E16E0B43C2F89030236813F4003F08D0E9
:101B3C00764AD2F8903023F44003216F0B43C2F85D
:101B4C009030236813F0400F08D0704AD2F89030D0
:101B5C0023F00303616C0B43C2F89030236813F03D
:101B6C00800F08D0694AD2F8903023F00C03A16C96
:101B7C000B43C2F89030236813F4807F08D0634A7B
:101B8C00D2F8903023F03003E16C0B43C2F8903064
:101B9C00236813F4007F08D05C4AD2F8903023F00D
:101BAC00C003216D0B43C2F89030236813F4806F8F
:101BBC0008D0564AD2F8903023F44073616D0B4331
:101BCC00C2F89030236813F4006F08D04F4AD2F853
:101BDC00903023F44063A16D0B43C2F8903023681E
:101BEC0013F4805F08D0494AD2F8903023F4405364
:101BFC00E16D0B43C2F89030236813F4005F08D0FA
:101C0C00424AD2F8903023F44043216E0B43C2F881
:101C1C009030236813F4800F08D03C4AD2F89030EF
:101C2C0023F08063A16F0B43C2F89030236813F448
:101C3C00001F0DD0354AD2F8903023F00063E16FCD
:101C4C000B43C2F89030E36FB3F1006F00F0C68025
:101C5C00236813F0080F00D0012513F4802F08D04F
:101C6C002A4AD2F8903023F04073616F0B43C2F8CC
:101C7C009030236813F4000F09D0244AD2F8903026
:101C8C0023F08053D4F880100B43C2F890302368B3
:101C9C0013F0806F09D01D4AD2F8903023F0005316
:101CAC00D4F884100B43C2F89030236813F0006F03
:101CBC0009D0164AD2F88C3023F00073D4F888106F
:101CCC000B43C2F88C30236813F0805F09D00F4AA5
:101CDC00D2F88C3023F08063D4F88C100B43C2F80C
:101CEC008C30002E7CD12368B3F1007F78D0012D8D
:101CFC0000F00981002003B0F0BD0126A9E6012601
:101D0C00B9E60125BBE60126CBE600BF0038024050
:101D1C00B74B1A6C42F080521A641B6C03F0805360
:101D2C000193019BB34A136843F48073136001F071
:101D3C0037FE0746AF4B1B6813F4807F06D101F0CA
:101D4C002FFEC01B6428F5D90320D4E7A84B1B6FCA
:101D5C0013F4407315D0226B02F440729A4210D0E7
:101D6C00A34B1A6F22F44072196F41F4803119673A
:101D7C00196F21F4803119671A671B6F13F0010F6B
:101D8C0012D1236B03F44072B2F5407F1DD0984AF8
:101D9C00936823F4F813936095490B6F226BC2F38D
:101DAC000B0213430B6787E601F0FAFD0746904BD5
:101DBC001B6F13F0020FE4D101F0F2FDC01B41F2D6
:101DCC0088339842F3D9032095E78948826822F436
:101DDC00F812894919400A438260DDE7012537E78B
:101DEC00834A136823F08063136001F0D9FD064623
:101DFC007F4B1B6813F0006F06D001F0D1FD801BE8
:101E0C006428F5D9032076E7236813F0010F13D06B
:101E1C00636B8BB9764AD2F88430D2F88410606840
:101E2C0003F4403343EA801301F070610B43A16863
:101E3C0043EA0173C2F88430236813F4002F03D0F3
:101E4C00E26BB2F5801F06D013F4801F1ED0236CFA
:101E5C00B3F5800F1AD1664AD2F88430D2F88410C8
:101E6C00606803F4403343EA8013E06843EA00639C
:101E7C0001F0E0410B43C2F88430D2F88C3023F0EF
:101E8C001F03616A01390B43C2F88C30236813F0CD
:101E9C00807F11D0564AD2F88400D2F8841066683C
:101EAC0023691B0443EA861300F07060034301F0BE
:101EBC00E0410B43C2F88430236813F0007F0DD04F
:101ECC00626823691B0443EA8213E26843EA0263F3
:101EDC00A26843EA0273464AC2F88430444A136843
:101EEC0043F08063136001F05BFD0646404B1B68BA
:101EFC0013F0006F7FF4FBAE01F052FD801B6428E1
:101F0C00F4D90320F7E63A4A136823F080531360A0
:101F1C0001F046FD0546364B1B6813F0005F06D0FA
:101F2C0001F03EFD401B6428F5D90320E3E623684D
:101F3C0013F4002F01D0E26B22B113F4801F1DD0DB
:101F4C00236CDBB92A4AD2F88830D2F88810606941
:101F5C0003F4403343EA8013A06943EA006301F0C1
:101F6C00E0410B43C2F88830D2F88C3023F4F8539C
:101F7C00A16A013943EA0123C2F88C30236813F4B7
:101F8C00001F03D0E36FB3F1006F37D0236813F059
:101F9C00080F19D0164AD2F88810D2F88830606928
:101FAC0003F4403343EA801301F070610B43E169A1
:101FBC0043EA0173C2F88830D2F88C3023F44033F2
:101FCC00E16A0B43C2F88C30094A136843F0805322
:101FDC00136001F0E5FC0446054B1B6813F0005F31
:101FEC001FD101F0DDFC001B6428F5D9032082E62B
:101FFC000038024000700040FFFCFF0F0A4AD2F884
:10200C008800D2F888106569236A1B0443EA85139B
:10201C0000F07060034301F0E0410B43C2F88830DC
:10202C00B4E7002067E600BF0038024070B582B00C
:10203C00044600230193006801F0C8F8054610B16E
:10204C00284602B070BD206801F0D3F838B90123DE
:10205C00A364A36C012B0BD02E46284614E000235E
:10206C00A364206801F0B2F80028F2D00546E7E737
:10207C000021206801F0D4F80028EDD04FF08055F5
:10208C00DEE7019B01330193019A4FF6FE739A42EE
:10209C0013D896B90021206801F0C2F8E0B91249B2
:1020AC00206801F0D5F80646C0B90021206800F080
:1020BC00D4FEC30FE5D01E46E3E7019A4FF6FE733C
:1020CC009A420ED810F0804302D001236364B7E724
:1020DC00002262641D46B3E70546B1E74FF0805518
:1020EC00AEE74FF08075ABE7000010C170B581B161
:1020FC0004460E46016D0904006801F005F9054619
:10210C0008B1284670BD0021206800F0A6FE3060A2
:10211C00F7E74FF00065F4E72DE9F04F87B0044680
:10212C000D4616469946DDF840A001F039FC3DB34A
:10213C00804694F83470FFB2012F40F014810023D4
:10214C00A36306EB0903E26D93421FD8032384F8C3
:10215C00343023680022DA62636C012B00D07602E3
:10216C004FF40071206800F087FFA0B1236882490A
:10217C009963A36B0343A363012384F83430F7E022
:10218C00A36B43F00063A3630127F1E0A36B43F05F
:10219C000073A363ECE04FF0FF3300934FEA492345
:1021AC0001939023029302230393002304930123AE
:1021BC0005936946206800F04DFFB9F1010F09D96C
:1021CC00022323633146206800F086FF48B9DDF80E
:1021DC0004B02DE0012323633146206800F064FF36
:1021EC00F4E72368644A9A63A36B1843A063012342
:1021FC0084F8343000232363BAE0206800F004FE36
:10220C002870C0F307236B70C0F30743AB70000E4C
:10221C00E8700435ABF1040B0136072EEDD901F053
:10222C00BFFBA0EB080050450FD2BAF1000F0CD049
:10223C002068466B16F4957615D1436B13F4004F5A
:10224C00EDD0BBF1000FEAD0E7E723684A4A9A6366
:10225C00A36B43F00043A363012384F834300023C1
:10226C002363032784E0436B13F4807F05D0B9F11B
:10227C00010F02D9636C032B38D123685A6B12F00F
:10228C00080F44D15A6B12F0020F4CD15A6B12F05A
:10229C00200F54D12068436B13F4001F5BD0BBF1AB
:1022AC00000F58D000F0B0FD2870C0F307236B70FE
:1022BC00C0F30743AB70000EE8700435ABF1040BB0
:1022CC0001F06EFBA0EB0800504502D2BAF1000FF2
:1022DC00E0D12368284A9A63A36B43F00043A363BD
:1022EC00012384F834300023236341E000F03CFFE9
:1022FC0003460028C1D022681F499163A26B134387
:10230C00A363012384F834300023236330E01A4A9A
:10231C009A63A36B43F00803A363012384F834305E
:10232C000023236324E0144A9A63A36B43F0020353
:10233C00A363012384F834300023236318E00E4A8E
:10234C009A63A36B43F02003A363012384F8343016
:10235C00002323630CE040F23A538363012384F897
:10236C003430002704E0A36B43F00053A363012730
:10237C00384607B0BDE8F08FFF0540002DE9F04F5F
:10238C0089B004460D461646994601F009FB3DB34B
:10239C00804694F83470FFB2012F40F0EE80002399
:1023AC00A36306EB0903E26D93421FD8032384F861
:1023BC00343023680022DA62636C012B00D0760281
:1023CC004FF40071206800F057FEA0B123686F49EC
:1023DC009963A36B0343A363012384F83430D1E0E6
:1023EC00A36B43F00063A3630127CBE0A36B43F023
:1023FC000073A363C6E04FF0FF3302934FEA492307
:10240C0003939023049300230593069301230793CE
:10241C0002A9206800F01EFEB9F1010F0CD920238F
:10242C0023633146206800F087FE8246BAF1000F24
:10243C000AD1DDF80CB031E010232363314620685B
:10244C0000F062FE8246F1E72368504A9A63A06B63
:10245C0040EA0A00A063012384F83430002323638C
:10246C0090E02B786A7843EA0223AA7843EA024385
:10247C00EA7843EA026301930435ABF1040B01A93A
:10248C00206800F0C4FC0136072EEAD901F088FA66
:10249C00A0EB0800129B98420DD263B12068466BEA
:1024AC0016F48D7615D1436B13F4804FEED0BBF13F
:1024BC00000FEBD0E8E72368344A9A63A06B40EA3C
:1024CC000A00A063012384F834300023236303271C
:1024DC0058E0436B13F4807F05D0B9F1010F02D99A
:1024EC00636C032B18D123685A6B12F0080F24D19C
:1024FC005A6B12F0020F2CD15A6B12F0100F34D011
:10250C00224A9A63A36B43F01003A363012384F85C
:10251C0034300023236335E000F026FE0346002808
:10252C00E1D0226819499163A26B1343A363012381
:10253C0084F834300023236324E0144A9A63A36B99
:10254C0043F00803A363012384F83430002323638E
:10255C0018E00E4A9A63A36B43F00203A3630123B2
:10256C0084F83430002323630CE040F23A529A632F
:10257C00012384F83430002704E0A36B43F00053AC
:10258C00A3630127384609B0BDE8F08FFF05400072
:10259C0010B4436E9B0F0B70436EC3F383634B708D
:1025AC0090F8673003F003038B7090F86630CB70B3
:1025BC0090F865300B7190F864304B71836E1B0D85
:1025CC00CB80B0F86A3003F00F030B72836EC3F349
:1025DC00C0334B72836EC3F380338B72836EC3F341
:1025EC004033CB72836EC3F300330B7300234B73F6
:1025FC00436C002B40F08880826E40F6FC7303EA3B
:10260C008203C26E43EA92730B61C36EC3F3C2635F
:10261C000B7590F86F3003F007034B75C36EC3F363
:10262C0042538B75C36EC3F38243CB75C36EC3F336
:10263C00C2330B760B69013343650A7E02F0070245
:10264C00023203FA02F242650B7A03F00F04012303
:10265C00A34083655B0A03FB02F3C3654FF400736D
:10266C000366C36EC3F380334B76C36EC3F3C613DA
:10267C008B76C36E03F07F03CB76036FDB0F0B7788
:10268C00036FC3F341734B77036FC3F382638B7791
:10269C00036FC3F38353CB77036FC3F3405381F8BA
:1026AC002030002381F82130B0F8722002F00102B2
:1026BC0081F82220026FC2F3C03281F82320026F0E
:1026CC00C2F3803281F82420026FC2F3403281F8C9
:1026DC002520026FC2F3003281F82620026FC2F36C
:1026EC00812281F82720026FC2F3012281F8282071
:1026FC00026FC2F3460281F82920012281F82A20B8
:10270C0018465DF8044B7047012B11D1836E1B04E6
:10271C0003F47C13B0F86E2013430B610B69013387
:10272C009B024365C3654FF400738365036698E7AA
:10273C000368054A9A63836B43F0805383630123D8
:10274C0080F834301846DCE7FF05400070B590B0D7
:10275C0004460123ADF81230006800F065FB002838
:10276C006CD0636C032B45D1636C032B5DD1636C14
:10277C00032B1DD0BDF8121021650904206800F050
:10278C0096FD054600285BD10021206800F065FB12
:10279C0060660421206800F060FBA06608212068B8
:1027AC0000F05BFBE0660C21206800F056FB206714
:1027BC000421206800F051FB000DE06405A92046BF
:1027CC00FFF7E6FE00283ED1226D1204002320689C
:1027DC0000F0E4FC054698BB234653F8106B93E8D5
:1027EC0007008DE80700043494E80E00304600F032
:1027FC00EFFA25E0206800F045FD054600BB0021FE
:10280C00206800F02AFB60670421206800F025FB9B
:10281C00A0670821206800F020FBE0670C212068ED
:10282C0000F01BFBC4F880009EE70DF1120120683C
:10283C0000F052FD0546002899D001E04FF080656C
:10284C00284610B070BD4FF08055F9E730B58BB00D
:10285C000446002304930593069307930893762369
:10286C0009930AAB13E907008DE8070004AB0ECB04
:10287C00206800F0ADFA18B1012528460BB030BD28
:10288C0005462268536823F480735360206800F077
:10289C00C3FA2268536843F4807353602046FFF7F1
:1028AC00C5FB30B1012584F83450A36B0343A363FB
:1028BC00E3E72046FFF74AFF0028DED0012584F825
:1028CC003450A36B0343A363D7E7A8B110B50446F8
:1028DC0090F8343063B1032384F834302046FFF78A
:1028EC00B5FF58B9A0632063012384F8343010BDC0
:1028FC000377FEF72FF9EEE7012070470120F6E78A
:10290C00436C0B60836C4B60C36C8B60036DCB6052
:10291C00436D0B61836D4B61C36D8B61036ECB613A
:10292C000020704710B582B004460023019301A922
:10293C00FFF7DCFB10B1A36B0343A3630198C0F357
:10294C00432002B010BD0000534B98421FD0534B94
:10295C00984228D0524B984231D0524B98423AD0A0
:10296C00514B984243D0514B98424CD0504B9842CB
:10297C0055D0504B98425ED04F4B984267D04F4B3E
:10298C00984270D04E4B984279D00120704703F595
:10299C0060531A6942F001021A611A6922F00102AD
:1029AC001A610020704703F550531A6942F0020275
:1029BC001A611A6922F002021A610020704703F5AD
:1029CC0040531A6942F004021A611A6922F0040297
:1029DC001A610020704703F530531A6942F008025F
:1029EC001A611A6922F008021A610020704703F577
:1029FC0020531A6942F010021A611A6922F010026F
:102A0C001A610020704703F510531A6942F0200236
:102A1C001A611A6922F020021A610020704703F52E
:102A2C0000531A6942F040021A611A6922F04002FE
:102A3C001A610020704703F5E0531A6942F08002D6
:102A4C001A611A6922F080021A610020704703F59E
:102A5C00C0531A6942F480721A611A6922F48072A6
:102A6C001A610020704703F5A0531A6942F40072F2
:102A7C001A611A6922F400721A610020704703F57A
:102A8C0080531A6942F480621A611A6922F48062D6
:102A9C001A610020704700BF000002400004024091
:102AAC0000080240000C02400010024000140240DA
:102ABC0000180240001C024000200240002402408A
:102ACC0000280240F0B40C6894FAA4F4B4FA84F42C
:102ADC004BE08E68826893FAA3F5B5FA85F56D0024
:102AEC00032707FA05F522EA050293FAA3F5B5FACE
:102AFC0085F56D0006FA05F52A4382600E68CD68EF
:102B0C00426822EA060205FB06F52A4342600E697A
:102B1C00C26893FAA3F5B5FA85F56D00032707FA99
:102B2C0005F522EA050293FAA3F5B5FA85F56D00D1
:102B3C0006FA05F52A43C2604A68022A22D04A687E
:102B4C00056893FAA3F6B6FA86F67600032707FA19
:102B5C0006F625EA060593FAA3F3B3FA83F35B00B2
:102B6C0002FA03F32B43036001340B6833FA04F2CB
:102B7C003CD00122A2401340F6D04A68013A012A07
:102B8C00C5D8A6E793FAA3F2B2FA82F2072A15D8AF
:102B9C004E69026A93FAA3F5B5FA85F5AD000F27D5
:102BAC0007FA05F522EA050293FAA3F5B5FA85F5BD
:102BBC00AD0006FA05F52A430262C0E74D69466A84
:102BCC001A0A92FAA2F7B7FA87F7BF004FF00F0C68
:102BDC000CFA07F726EA070692FAA2F2B2FA82F288
:102BEC00920005FA02F232434262A8E70020F0BCE0
:102BFC007047000082B0224A136843F0010313604F
:102C0C001F4B1B6813F0020FFAD01D4B00229A6069
:102C1C001A68019201991B4A0A400192019A1A60A2
:102C2C001A6822F0F80242F080021A60144B1B68FA
:102C3C0013F0007FFAD1124B1B6813F0006FFAD11E
:102C4C000F4B1B6813F0005FFAD10D4B0E4A5A6004
:102C5C00103AC3F88420C3F88820DA6822F4FE42C4
:102C6C00DA60DA6842F47F02DA605A6F22F001020D
:102C7C005A675A6F42F080725A67002002B0704750
:102C8C0000380240FFFFF2EA103000240B4B1B68A7
:102C9C000B4AA2FB03235A0A41F2883303FB02F3CB
:102CAC001A46013B3AB1426B12F0800FF8D0C523A3
:102CBC008363002070474FF00040704700000020F5
:102CCC00D34D62100146144B1B68144AA2FB03231C
:102CDC005A0A41F2883303FB02F31A46013BBAB19C
:102CEC004A6B12F0450FF8D012F4006FF5D14B6B14
:102CFC0013F0040F06D1486B10F0010005D1C52369
:102D0C008B63704704208863704701208863704789
:102D1C004FF00040704700BF00000020D34D621000
:102D2C000146104B1B68104AA2FB03235A0A41F2BE
:102D3C00883303FB02F31A46013B82B14A6B12F053
:102D4C00450FF8D012F4006FF5D1486B10F0040069
:102D5C0002D1C5238B6370470420886370474FF002
:102D6C000040704700000020D34D62100146164B06
:102D7C001B68164AA2FB03235A0A41F2883303FB51
:102D8C0002F31A46013BE2B14A6B12F0450FF8D040
:102D9C0012F4006FF5D14B6B13F0040F0BD14B6B8E
:102DAC0013F001030AD1486B10F040000BD0402205
:102DBC008A63184670470420886370470120886333
:102DCC0070474FF00040704700000020D34D621058
:102DDC0084B010B402AC84E80E000B46039A134383
:102DEC00049A1343059A1343069A1343079A134301
:102DFC004168044A0A401343436000205DF8044BC9
:102E0C0004B070470081FFFFD0F8800070470B685A
:102E1C00C0F880300020704708B5032303600220FF
:102E2C00FDF7BAFF002008BD006800F003007047F2
:102E3C000B6883604B688A681343CA6813430A693A
:102E4C001343C168024A0A401343C3600020704711
:102E5C0000F0FFFF0069C0B2704714304058704753
:102E6C0038B504460D46504B1B685049A1FB031363
:102E7C005B0A02FB03F21346013A002B5DD0636B35
:102E8C0013F0450FF7D013F4006FF4D1636B13F00C
:102E9C00040F06D1636B13F0010F05D00120A06362
:102EAC004DE00420A0634AE0C523A3632046FFF74E
:102EBC00D1FFA84201D0012041E000212046FFF7BC
:102ECC00CCFF03463A481840C8B3002B38DB13F04C
:102EDC00804F38D113F0005F37D113F0805F36D1BB
:102EEC0013F0006F36D113F0806F36D113F0807F62
:102EFC0036D113F4000F36D113F4800F36D113F4FE
:102F0C00001F36D113F4801F36D113F4802F36D125
:102F1C0013F4003F36D113F4803F36D113F4004F35
:102F2C0036D113F4804F36D113F4005F36D113F041
:102F3C00080F36D04FF4000001E04FF0004038BDD0
:102F4C004FF00070FBE74020F9E78020F7E74FF4E3
:102F5C008070F4E74FF40070F1E74FF48060EEE717
:102F6C004FF40060EBE74FF48050E8E74FF400506B
:102F7C00E5E74FF48040E2E74FF40040DFE74FF421
:102F8C000030DCE74FF48020D9E74FF40020D6E77F
:102F9C004FF48010D3E74FF40010D0E74FF48000CB
:102FAC00CDE74FF48030CAE700000020D34D62100B
:102FBC0008E0FFFDF8B505460E461746234B1B6887
:102FCC002348A0FB0323580A41F2883303FB00F388
:102FDC001C46013B8CB36C6B14F0450FF8D014F409
:102FEC00006FF5D16B6B13F0040F06D16B6B13F004
:102FFC00010F05D00120A86321E00420A8631EE086
:10300C002846FFF727FFB04201D0012017E0C52367
:10301C00AB6300212846FFF720FF034610F4604005
:10302C0008D013F4804F0BD113F4004F0BD04FF496
:10303C00805004E01B0C3B8001E04FF00040F8BDD9
:10304C004FF40050FBE74FF48030F8E7000000200D
:10305C00D34D62100B6843624B6883628B68CA68FD
:10306C0013430A6913434A691343C26A22F0F702F5
:10307C001343C3620020704730B587B004460191FA
:10308C001025029540230393002304934FF480638F
:10309C00059301A9FFF7CCFE41F288322946204660
:1030AC00FFF7DEFE07B030BD30B587B004460191A6
:1030BC001125029540230393002304934FF480635E
:1030CC00059301A9FFF7B4FE41F288322946204648
:1030DC00FFF7C6FE07B030BD30B587B0044601918E
:1030EC001225029540230393002304934FF480632D
:1030FC00059301A9FFF79CFE41F288322946204630
:10310C00FFF7AEFE07B030BD30B587B00446019175
:10311C001825029540230393002304934FF48063F6
:10312C00059301A9FFF784FE41F288322946204617
:10313C00FFF796FE07B030BD30B587B0044601915D
:10314C001925029540230393002304934FF48063C5
:10315C00059301A9FFF76CFE41F2883229462046FF
:10316C00FFF77EFE07B030BD30B587B004460023B4
:10317C0001930C2502954022039204934FF4806333
:10318C00059301A9FFF754FE034A29462046FFF791
:10319C0067FE07B030BD00BF00E1F50530B587B064
:1031AC0004460192072502954023039300230493C0
:1031BC004FF48063059301A9FFF73AFE41F2883280
:1031CC0029462046FFF74CFE07B030BD10B586B03F
:1031DC000446002301930293039304934FF48063FA
:1031EC00059301A9FFF724FE2046FFF74FFD06B01B
:1031FC0010BD10B586B004464FF4D5730193082367
:10320C00029340230393002304934FF480630593AC
:10321C0001A9FFF70DFE2046FFF7A8FD06B010BD73
:10322C0030B587B0044601913725029540230393AE
:10323C00002304934FF48063059301A9FFF7F8FD75
:10324C0041F2883229462046FFF70AFE07B030BD0E
:10325C0010B586B004460A4B0B4301932923029305
:10326C0040230393002304934FF48063059301A937
:10327C00FFF7DEFD2046FFF753FD06B010BD00BF83
:10328C000000108010B586B0044600230193022282
:10329C000292C022039204934FF48063059301A918
:1032AC00FFF7C6FD2046FFF70DFD06B010BD10B5AB
:1032BC0086B00446019109230293C0230393002393
:1032CC0004934FF48063059301A9FFF7B1FD2046E9
:1032DC00FFF7F8FC06B010BD70B586B004460D467D
:1032EC0000230193032602964022039204934FF489
:1032FC008063059301A9FFF79BFD2A4631462046C2
:10330C00FFF758FE06B070BD30B587B0044601918A
:10331C000D25029540230393002304934FF48063FF
:10332C00059301A9FFF784FD41F288322946204616
:10333C00FFF796FD07B030BD014B1860704700BF1A
:10334C000000002008B50349034802F0C9FD034BF7
:10335C00187008BD28F50420805F000824F50420AF
:10336C000020704700B583B0009313460A4601460F
:10337C000348FEF7D1FE00B1012003B05DF804FB59
:10338C0080F3042000B583B0009313460A4601462F
:10339C000348FEF7F3FF00B1012003B05DF804FB16
:1033AC0080F3042008B50348FFF7BCFA043818BFB3
:1033BC00012008BD80F3042008B501460148FFF741
:1033CC009FFA08BD80F3042082B001238DF80730EA
:1033DC009DF8070002B0704708B5FFF7F5FF01280C
:1033EC0001D0022008BD0248FFF76FFAFAE700BFD0
:1033FC0080F3042008B5074B01221A70FFF7D2FFA7
:10340C0020B9044A137803F0FE031370014B1878AB
:10341C0008BD00BF0C00002010B50446074B01226C
:10342C001A70FFF7D9FF10B1044B187810BD204665
:10343C00FFF7E0FF014B1870F6E700BF0C0000200F
:10344C0008B5FFF7D7FF08BD08B5084611461A4660
:10345C004FF0FF33FFF786FF30B9FFF7A3FF0346AA
:10346C000028FAD1184608BD0123FBE708B5084629
:10347C0011461A464FF0FF33FFF784FF30B9FFF7C0
:10348C0091FF03460028FAD1184608BD0123FBE73B
:10349C0030B589B0134B1B7813F001041DD10846CD
:1034AC00154603291CD8DFE801F0190209106846FB
:1034BC00FFF782FF069B2B6020460FE06846FFF764
:1034CC007BFF079B2B80204608E06846FFF774FFC4
:1034DC00079B5B0A2B60204600E0032009B030BD3F
:1034EC000420FBE70C00002072B6704762B67047F0
:1034FC0008B5FFF7F9FF08BD10B500F00FFA00B9D9
:10350C0010BDFCF79DFE0028FAD0FDF7F1FB00F092
:10351C0015FA00F007FA054B0340054A936000F0DA
:10352C0001FA4468FFF7E2FFA047E9E780FFFF1FBD
:10353C0000ED00E070B50D460446531E9EB23AB144
:10354C0015F8013B04F8013B00F08EFA3246F4E723
:10355C0070BD0000044B5B6913F0005F01D00120CB
:10356C0070470020704700BF003C024038B505464C
:10357C00002401E00134E4B20A2C17D800F074FAEC
:10358C0004EB44030A4A52F82330AB42F2D804EB62
:10359C004402074901EB820252681344AB42E9D959
:1035AC0004EB440001EB8000007A00E0FF2038BD02
:1035BC00945F000808B5C1F3080353B903688B4244
:1035CC0009D040F8041B4FF40072FFF7B3FF012041
:1035DC0008BD0020FCE70120FAE72DE9F041074681
:1035EC00FFF7B8FF804610B94046BDE8F081FDF703
:1035FC0079FE00247F2C15D83E6806EB840807EB77
:10360C0084035D6800F030FA2A460023414602200C
:10361C00FDF7BCFE804640B956F82430AB4206D1CB
:10362C000134E7E74FF0010801E04FF00008FDF727
:10363C0071FED9E738B50D460C4B984211D00446B3
:10364C000B4B994207D1094C29462046FFF7B2FF94
:10365C0048B1204638BDFFF7C0FF0028F4D1002444
:10366C00F7E7044CF0E70024F3E700BF04E704207D
:10367C000080000800E504202DE9F04106460C46C8
:10368C0017461D46DFF8708001EA08080368B3F19D
:10369C00FF3F07D0336843450AD13168641A34447C
:1036AC00043414E04146FFF785FF0028F2D11FE0F7
:1036BC0041463046FFF7BEFF06460028EDD10020FC
:1036CC0016E017F8013B04F8013B013D0FD000F068
:1036DC00CBF9311D611AB1F5007FF2D308F50071F9
:1036EC003046FFF7A7FF064620B1041DE9E701208D
:1036FC00BDE8F0810020FBE700FEFFFF70B586B04F
:10370C0004460E4600230093884205D801252CB1AF
:10371C000B2E04D9002502E00025F8E70025FFF761
:10372C0019FF08B115B9284606B070BD00230193E6
:10373C000223059301230493FDF7D4FDB4420BD867
:10374C0000F092F90394694601A8FDF7B3FE10B995
:10375C000134E4B2F2E70025FDF7DCFD2846E3E78F
:10376C004FF0FF33024A1360024A1360704700BFE8
:10377C0000E5042004E7042070B50D460139134B15
:10378C001B1A994201D9002070BD04461646FFF75A
:10379C00EDFEFF2811D028190138FFF7E7FEFF28AE
:1037AC000BD00B4B23400B4A934208D02B4632468E
:1037BC0021460948FFF760FFE6E70020E4E72B46C7
:1037CC00324621460548FFF757FFDDE7FFFF1F088C
:1037DC0000FEFFFF0080000800E5042004E7042041
:1037EC004A1E0D4B1B1A9A4201D90020704770B526
:1037FC0005460C46FFF7BAFE06462C44601EFFF742
:10380C00B5FEFF2818BFFF2E01D1002070BD014668
:10381C003046FFF773FFF9E7FFFF1F08104B1B68DB
:10382C00B3F1FF3F19D000B583B00D4A53689168CE
:10383C000B44D1680B4411690B4451690B449169D9
:10384C000B44D26913445B42019301AA042105483D
:10385C00FFF792FF03B05DF804FB0120704700BF37
:10386C0004E70420C88100080D4B1B680D4A126840
:10387C001A440D4B1B6813440C4A126813440C4A2F
:10388C0012681A440B4B1B681A440B4B1B681344ED
:10389C000A4A1268DA4201D00020704701207047B2
:1038AC000080000804800008088000080C800008D4
:1038BC00108000081480000818800008C8810008D7
:1038CC0008B50C4B1B68B3F1FF3F06D10A4B1B68C4
:1038DC00B3F1FF3F07D1012008BD0648FFF77DFE7D
:1038EC000028F3D1F8E70448FFF777FE0028F3D05F
:1038FC000120F1E704E7042000E5042000487047AC
:10390C000080000808B5FFF72BFF08BD08B5FFF7CE
:10391C0033FF08BD08B5FFF763FF08BD08B5FFF717
:10392C00A3FF08BD08B5FFF7E9FF08BD08B5FFF711
:10393C0075FF00B908BDFFF7C3FFFBE7024B002280
:10394C001A605A609A60704710E000E008B5FFF703
:10395C00F5FF054B054A5A6000229A600521196053
:10396C00034B1A6008BD00BF10E000E0BF4B030022
:10397C0008E90420044B1B6813F4803F03D0034A6E
:10398C00136801331360704710E000E008E904206D
:10399C0008B5FFF7EFFF014B186808BD08E90420D4
:1039AC0008B5FFF7F5FF08BD08B500F05DF8FCE7BA
:1039BC0008B500F0EFF818B10C4B1B78012B00D0B8
:1039CC0008BDFFF7E5FF0A4B1B680A4A126813444F
:1039DC0003F5FA739842F3D3044B00221A7000F0EB
:1039EC00E3F80028ECD1FFF787FDE9E710E90420A4
:1039FC000CE9042014E9042008B5054B1B78012BB5
:103A0C0000D008BDFFF7C4FF024B1860F9E700BFF8
:103A1C0010E9042014E9042008B5044B01221A70A3
:103A2C00FFF7EAFFFFF7C4FF08BD00BF10E9042051
:103A3C0008B5FFF75DFD00F013F8FFF787FFFFF700
:103A4C0061FF00F08FF8FFF7E7FF08BD08B500F045
:103A5C000BF8FFF78FFF00F0A1F9FFF7A9FF08BDE6
:103A6C0008B5FCF7F2FB08BD08B5FCF7F4FB08BD84
:103A7C0000F00F0202F13003092802D902F13700DD
:103A8C007047054A9A5C02F00302022A01D0D8B2B0
:103A9C007047203BFBE700BF8962000838B505463C
:103AAC000C460009FFF7E4FF207005F00F00FFF74C
:103ABC00DFFF60700023A370204638BD10B40246AF
:103ACC0008461346013019460D4CA4FB0343DB0892
:103ADC000929F7D800230370094BA3FB0213DB0859
:103AEC00194603EB8303A2EB4303303300F8013D8B
:103AFC0013460A46092BEFD85DF8044B704700BFFC
:103B0C00CDCCCCCC30B405460024204607E0203B7D
:103B1C000EE00001C0B24318D8B20134E4B2012C5B
:103B2C001CD82B5D0E4A9A5C02F00302022AEED0DE
:103B3C00DBB2A3F13001C9B2A3F13A02D2B2062A28
:103B4C008CBF00220122162988BF42F0010222B943
:103B5C000929DED9373BD9B2DBE7002030BC7047EE
:103B6C008962000808B50022064B1A7006490748FE
:103B7C0001F0BCFB00B908BD77210548FFF714FF25
:103B8C00F9E700BF80ED04201860000820E904204C
:103B9C001C600008034B1B780BB100207047012000
:103BAC00704700BF80ED042010B5074B1C7814B192
:103BBC000024204610BDFCF753FB0128F9D1024B21
:103BCC0001221A700446F4E780ED04200378114AB0
:103BDC009A5C02F00302022A0FD0532B0FD14378C8
:103BEC000C4A9A5C12F0040F0BD0312B0BD0322BF9
:103BFC000BD0332B0BD003207047203BEDE7032079
:103C0C007047032070470020704701207047022046
:103C1C00704700BF8962000870B506460230FFF796
:103C2C0071FF054684B204363046FFF76BFF05443E
:103C3C00EDB2013CA4B20236012CF5D8ED43EDB245
:103C4C003046FFF75FFFA84201D1012070BD002074
:103C5C00FCE700002DE9F04117460E4604460038FB
:103C6C0018BF0120002908BF0020A8B12046FFF78B
:103C7C00ADFF0546032800F08A802046FFF7CCFFF5
:103C8C00002800F08680012D2CD0022D51D04DB192
:103C9C0000252846BDE8F08140F277213E48FFF729
:103CAC0083FEE3E7A01CFFF72DFF1FFA80F8201D11
:103CBC00FFF728FF05023560A01DFFF723FF054421
:103CCC0035600834A8F103052DB2002FE1D0002691
:103CDC00AE42DEDA2046FFF715FFB8550234013646
:103CEC00B6B2F5E7A01CFFF70DFF1FFA80F8201DF8
:103CFC00FFF708FF05043560A01DFFF703FF05EB78
:103D0C000025356004F10800FFF7FCFE0544356022
:103D1C000A34A8F104052DB2002FBAD00026AE4209
:103D2C00B7DA2046FFF7EEFEB85502340136B6B2CC
:103D3C00F5E7A01CFFF7E6FE1FFA80F8201DFFF741
:103D4C00E1FE05063560A01DFFF7DCFE05EB004526
:103D5C00356004F10800FFF7D5FE05EB0025356052
:103D6C0004F10A00FFF7CEFE054435600C34A8F1CF
:103D7C0005052DB2002F8CD00026AE4289DA2046E4
:103D8C00FFF7C0FEB85502340136B6B2F5E7002590
:103D9C007FE74FF0FF357CE71C600008B14B1B78C8
:103DAC00002B00F03B8270B5012B05D0022B4AD0C2
:103DBC00032B00F07B8170BDFFF7A4FDFCF772FABA
:103DCC00A948FCF7A3FAA948FCF7A0FA4FF4C8726B
:103DDC007E212820FCF798FC14227E212820FCF759
:103DEC00BBFC14227E214FF4DC70FCF7B5FC4FF4C5
:103DFC00C87292212820FCF787FCFCF74FFA014689
:103E0C0001229B4801F0A2FA80B99A48FCF77EFA8D
:103E1C009948FCF77BFA9948FCF778FA984B002202
:103E2C001A605A608F4B02221A70C4E78D4B002225
:103E3C001A709448FCF76AFA9348FCF703FC0120CB
:103E4C00FCF756FAB7E7914C04F50C724FF48071FD
:103E5C008F4801F0E9FF94F84532002B64D1A8B1EA
:103E6C008B48002200F5C071FFF7F4FE0446B0F158
:103E7C00FF3F6AD0002809DD814B5B68002B74D1B1
:103E8C00834BD3F880217E4B1A6058607F4BD3F85C
:103E9C004822D3F83C329A428DD10021744801F06B
:103EAC00F4FD002840F0BD80754B5B68002B34D0CE
:103EBC007048FCF72BFA7748FCF728FA764D704CD3
:103ECC0029466068FFF7FAFD2846FCF71FFA73488D
:103EDC00FCF71CFA2946E078FFF7E0FDA91CA07856
:103EEC00FFF7DCFD291D6078FFF7D8FDA91D2078B0
:103EFC00FFF7D4FD2846FCF709FA6948FCF706FAE7
:103F0C00684B01221A70684B00221A706168206895
:103F1C00FFF700FD002800F094805648FCF7F6F9F6
:103F2C00504B03221A7046E74E4B00221A7055482C
:103F3C00FCF7ECF95448FCF785FB0220FCF7D8F9A8
:103F4C0004F50C7001F08CFD35E7464B00221A701D
:103F5C004C48FCF7DBF94C48FCF774FB0320FCF7EE
:103F6C00C7F9434801F07CFD25E7494AD2F8801196
:103F7C00434A12681A44914203D10344404A5360A5
:103F8C0084E73C48FCF7C2F94248FCF7BFF9424EC3
:103F9C003B4D31466868FFF791FD3046FCF7B6F9AA
:103FAC003E48FCF7B3F93146E878FFF777FDB11CD2
:103FBC00A878FFF773FD311D6878FFF76FFDB11D11
:103FCC002878FFF76BFD3046FCF7A0F93448FCF776
:103FDC009DF9344B01221A70334B00221A70696818
:103FEC002868FFF797FC60B12248FCF78FF923484B
:103FFC00FCF78CF9264BD3F88021214B1A605C60BE
:10400C0044E7184B00221A701E48FCF77FF91E4833
:10401C00FCF718FB0520FCF76BF9154801F020FDA7
:10402C00C9E6104B00221A701648FCF76FF91648B7
:10403C00FCF708FB0420FCF75BF90D4801F010FDC0
:10404C00B9E6084B00221A700E48FCF75FF90E48CF
:10405C00FCF7F8FA0520FCF74BF9054801F000FDD8
:10406C00A9E600BF80ED04205060000874600008D1
:10407C0050EB0420A4600008AC600008D06000087D
:10408C0018E904209C6000080000FFFF20E90420D0
:10409C0084ED04200061000808EF04200C61000886
:1040AC00B0610008600200206E0200205C4C04F538
:1040BC000C724FF480715B4801F0B6FE94F84532F7
:1040CC0083BB60B1574800F5807200F5C071FFF7F3
:1040DC00C1FD0446B0F1FF3F35D0002843DC504B06
:1040EC00D3F84822D3F83C329A427FF464AE4E485F
:1040FC00FCF70CF9FFF71AFC00287FD04B48FCF7B3
:10410C0005F94B48FCF702F94A4801F0A9FC4A486A
:10411C00FCF7FCF8494B00221A70FCF7D7F8FFF7B4
:10412C00EBF948E6454B00221A704548FCF7EEF8CF
:10413C004448FCF787FA0220FCF7DAF804F50C7017
:10414C0001F08EFC37E63D4B00221A703E48FCF71E
:10415C00DDF83C48FCF776FA0320FCF7C9F8354843
:10416C0001F07EFC27E63948FCF7D0F8384D29469B
:10417C002046FFF7A3FC2846FCF7C8F83548FCF7A7
:10418C00C5F8284E294696F88301FFF787FCA91C31
:10419C0096F88201FFF782FC291D96F88101FFF742
:1041AC007DFCA91D96F88001FFF778FC2846FCF7EA
:1041BC00ADF82948FCF7AAF8284B00221A70284BB6
:1041CC0001221A7006F580722146D6F88001FFF79D
:1041DC009DFB18B11548FCF799F880E7174B0022A6
:1041EC001A702048FCF792F81648FCF72BFA0620B8
:1041FC00FCF77EF80F4801F033FCDCE50F4B002296
:10420C001A701848FCF782F80E48FCF71BFA0720C6
:10421C00FCF76EF8074801F023FCCCE5704700BFB3
:10422C0020E9042084ED042098610008A4600008B3
:10423C00B461000850EB0420CC61000880ED042030
:10424C00286100080000FFFF4C6100087061000845
:10425C0008EF042080610008B061000860020020B3
:10426C006E0200209C60000808B5044B03EB800232
:10427C00526852680344187A904708BD70EF0420C6
:10428C0008B5084B1B5C53B9064B01221A5403EBBF
:10429C008002526812681844007A904708BD0020CA
:1042AC00FCE700BF70EF042038B5044C04EB80052C
:1042BC006D68AD680444207AA84738BD70EF0420BF
:1042CC0038B5044C04EB80056D68ED680444207A25
:1042DC00A84738BD70EF042010B5044B03EB8004E5
:1042EC00646824690344187AA04710BD70EF042059
:1042FC004278007840EA02207047C278837843EA1B
:10430C000222437843EA0223007840EA03207047F4
:10431C000170090A417070470170C1F307234370A3
:10432C00C1F307438370090EC170704710B4144673
:10433C002AB10A78013102700130013CF9D15DF8E3
:10434C00044B704701700130013AFBD1704710B437
:10435C000446207801340B780131C01A013A01D09F
:10436C000028F6D05DF8044B70470346187818B156
:10437C00884201D00133F9E77047000030B40025C2
:10438C002B4601E001250133012B15D81A01184CDD
:10439C00A258002AF6D00468A242F4D1144A02EBC7
:1043AC000312546882689442EDD1114A02EB031255
:1043BC00946842699442E6D1022B0AD0A9B90C4AFE
:1043CC0002EB03139B89B3F5807F0CD0002030BC2B
:1043DC007047022914BF294645F0010109B100209C
:1043EC00F5E71220F3E71020F1E71020EFE700BF0C
:1043FC004CEF0420002000E00130012804D8030118
:10440C00034AD358002BF7D1023818BF012070474C
:10441C004CEF042070B4002300E00133012B13D8BF
:10442C001A01244CA45802689442F6D1214A02EB9A
:10443C000312546882689442EFD11E4A02EB0312B5
:10444C00946842699442E8D1022B13D021B1194AE5
:10445C0002EB0312928952BB21BB164A02EB0312E8
:10446C009189013189B2134A02EB03129181581CD4
:10447C0070BC70470023012B05D81A010D4CA258B3
:10448C000AB10133F7E7022B0FD00668094D1C0166
:10449C0005EB03122E518468546040699060002033
:1044AC009081D3E74FF48071DDE70020E0E7002036
:1044BC00DEE700BF4CEF04200138012815D80D4B66
:1044CC0003EB00139B89B3F5807F03D01BB1013B39
:1044DC009BB200E00023074A02EB0012938133B930
:1044EC0003010020034AD05070470220704700207F
:1044FC00704700BF4CEF0420002303E05DF8044B31
:10450C0070470133012B11D81A0109498A5882428C
:10451C00F7D110B41A0100248C500133012BEDD8C3
:10452C001A0103498A588242F7D1F3E7704700BF5A
:10453C004CEF042002394369023B8B4204D9438976
:10454C00806A01FB03007047002070470268C36A51
:10455C000433490A5289B1FBF2F1186830B1814237
:10456C0002D3091A0833F8E758680844704770B545
:10457C0006460D4601F11A00FFF7BAFE3378032BFD
:10458C0000D070BD044605F11400FFF7B1FE44EAFB
:10459C000040F6E770B506460C46154691B204F19C
:1045AC001A00FFF7B5FE3378032B00D070BD290C31
:1045BC0004F11400FFF7ACFEF8E7F8B500234B72DA
:1045CC00C36963B307460E460022134605E0092C67
:1045DC000ED0B1184B72013223460A2B0DD83D6A0E
:1045EC005C1CEB5C202BF7D0052BF0D1E523EEE720
:1045FC00B1182E2048720132EBE73244002353727B
:10460C003B6ADB7A3372386A1C30FFF776FE306017
:10461C00386A1630FFF771FEF080000CB080F8BDE0
:10462C002DE9F84F81468A46D1F8008000F1240B21
:10463C000B2220215846FFF785FE00252B46082724
:10464C0029E0013618F806305C2B18BF2F2BF8D058
:10465C004644CAF80060002D45D099F82430E52B6B
:10466C0036D0202C38D8042389F82F30002036E09F
:10467C0014F0800F28D121461C48FFF776FE80BB32
:10468C00A4F16103DBB2192B01D8203CE4B20BF886
:10469C000540013533465E1C18F80340202CD7D951
:1046AC005C2C18BF2F2CCDD02E2C18BFAF42DFD8CE
:1046BC002E3C18BF01240B2F14BF274644F00107D2
:1046CC0067B908250B27E5E7803C094B1C5DD2E751
:1046DC00052389F82430C4E70023C5E70620BDE88C
:1046EC00F88F0620FBE70620F9E700BFF861000809
:1046FC00086200080146006808B1024603E04FF06A
:10470C00FF307047013213783A2B18BF202BF9D8A1
:10471C003A2B01D000207047034613F8010B3038B8
:10472C00092898BF9A4203D128B901320A60704710
:10473C004FF0FF3070474FF0FF307047016000239F
:10474C0043608360704738B50D46044698B10368E2
:10475C009BB11A78A2B18188DA88914203D00920E2
:10476C0000242C6038BD5878FFF77EFD10F0010056
:10477C0009D12468F5E70920F3E71C460920F0E786
:10478C0009200024EDE709200024EAE72DE9F04197
:10479C00C57815B92846BDE8F0810446C76A00F112
:1047AC00300801233A4641464078FFF789FD05461B
:1047BC0098B90023E370236AFB1AA2699342E9D2E9
:1047CC00A678012EE6D9A3691F4401233A46414637
:1047DC006078FFF775FD013EF3E70125DAE770B568
:1047EC00C36A8B4202D10026304670BD04460D468A
:1047FC00FFF7CCFF06460028F6D101232A4604F128
:10480C0030016078FFF750FD10B101264FF0FF35F5
:10481C00E562E9E738B504460023C3704FF0FF3377
:10482C00C362FFF7DCFF30BB054604F22E20FFF716
:10483C005FFD4AF6552398421FD194F83030E92B8E
:10484C0007D0236B03F0FF130D4A934201D00225CE
:10485C0014E004F16600FFF750FD20F07F40094B97
:10486C0098420BD004F18200FFF747FD064B9842AB
:10487C0004D0022502E0042500E00325284638BDBB
:10488C00EB00900046415400464154332DE9F04F63
:10489C0085B00D46164600230B60FFF72BFF071E55
:1048AC00C0F24481B54B53F82740002C00F04381F3
:1048BC002C6006F0FE06237873B16078FFF7D4FC09
:1048CC0010F0010508D1002E00F0318110F0040F1A
:1048DC0000F02D810A252AE100232370F8B26070C4
:1048EC00FFF7CEFC10F0010540F027811EB110F04F
:1048FC00040F40F0248100212046FFF78BFF022893
:10490C0000F0B6800027042800F01B81012800F27B
:10491C001A8104F13B00FFF7EBFCB0F5007F40F08F
:10492C00148104F14600FFF7E3FC064620B904F1BC
:10493C005400FFF7E2FC0646A66194F84020A270F2
:10494C00531EDBB2012B00F2028106FB02F894F835
:10495C003D90A4F80A90B9F1000F00F0FA8009F12B
:10496C00FF3319EA030F40F0F68004F14100FFF722
:10497C00BFFC8246208110F00F0F40F0EE8004F156
:10498C004300FFF7B5FC834620B904F15000FFF754
:10499C00B4FC834604F13E00FFF7AAFC0246002853
:1049AC0000F0DD8000EB080303EB1A139B45C0F00D
:1049BC00D880ABEB030BBBFBF9F1CB45C0F0D3803C
:1049CC004FF6F57081426BD94FF0030B40F6F57042
:1049DC00814201D84FF0010B01F10209C4F8149087
:1049EC00E7613A4422623B44A362BBF1030F5AD005
:1049FC00BAF1000F00F0BD8042446262BBF1020FBD
:104A0C0062D009EB490309F0010909EB530909F2DA
:104A1C00FF19B6EB592FC0F0AE804FF0FF33236176
:104A2C00E36080232371BBF1030F50D084F800B0F6
:104A3C00534A138801339BB21380E3802046FFF75F
:104A4C005BFD74E0002004AB03EB860343F8100C11
:104A5C000136032E0ED804F13000330103F5DF7359
:104A6C0018440379002BEDD00830FFF746FCEAE739
:104A7C000026EEE700260AE039462046FFF7CAFE7C
:104A8C0001287FF640AF0136032E3FF63CAF04AB56
:104A9C0003EB860353F8107C002FEDD10320F2E7D3
:104AAC004FF0020B92E704F15A00FFF721FC0028AB
:104ABC005BD1BAF1000F5AD104F15C00FFF71DFC79
:104ACC0060624FEA8909A2E74FEA49099FE704F1BE
:104ADC006000FFF70DFC0128A8D1791C2046FFF7D8
:104AEC007EFE0028A2D10023237104F22E20FFF7B2
:104AFC00FFFB4AF65523984298D104F13000FFF79A
:104B0C00FCFB204B984291D104F50570FFF7F5FBA7
:104B1C001D4B98428AD104F50670FFF7EEFB20611D
:104B2C0004F50770FFF7E9FBE0607FE70B252846EB
:104B3C0005B0BDE8F08F0C25F9E70325F7E70A254A
:104B4C00F5E70125F3E70D25F1E70D25EFE70D2539
:104B5C00EDE70D25EBE70D25E9E70D25E7E70D253D
:104B6C00E5E70D25E3E70D25E1E70D25DFE70D254D
:104B7C00DDE70D25DBE70D25D9E700BF48EF042065
:104B8C006CEF042052526141727241612DE9F04781
:104B9C0001297ED907460C46164643698B427AD9C1
:104BAC000378022B45D0032B57D0012B03D00225C1
:104BBC002846BDE8F08701EB5108016A01EB58214A
:104BCC00FFF70DFE05460028F2D107F1300A08F177
:104BDC000109C8F3080814F001041FD01AF90830B1
:104BEC0003F00F03320102F47F621343DBB20AF8C5
:104BFC0008300123FB70396A01EB59213846FFF765
:104C0C00EEFD05460028D3D1C9F3080944B1C6F31B
:104C1C0007120AF809200123FB70C9E7F3B2E6E793
:104C2C001AF9092022F00F02C6F303263243D2B23E
:104C3C00EFE7016A01EB1421FFF7D1FD05460028CF
:104C4C00B6D107F13000640004F4FF74B1B2204413
:104C5C00FFF75EFB0123FB70AAE7016A01EBD4119D
:104C6C00FFF7BDFD05460028A2D126F0704607F1DE
:104C7C003003A40004F4FE741C442046FFF73DFBF3
:104C8C0000F0704131432046FFF746FB0123FB70D7
:104C9C008EE702258CE702258AE7F8B5056801291D
:104CAC0056D90C466B698B4254D92B78022B2DD0DC
:104CBC00032B3BD0012B01D001204AE001EB510624
:104CCC00296A01EB56212846FFF789FD10B14FF0F8
:104CDC00FF303EE0771CC6F308062E4496F8306091
:104CEC00296A01EB57212846FFF779FDA0BBC7F3D2
:104CFC0008073D4495F8300046EA002014F0010FF7
:104D0C0001D0000925E0C0F30B0022E0296A01EB79
:104D1C0014212846FFF763FD08BB05F13000640041
:104D2C0004F4FF742044FFF7E3FA12E0296A01EB64
:104D3C00D4112846FFF753FDA0B905F13000A400AB
:104D4C0004F4FE742044FFF7D8FA20F0704000E021
:104D5C000120F8BD0120FCE74FF0FF30F9E74FF0E0
:104D6C00FF30F6E74FF0FF30F3E72DE9F041D0F8D4
:104D7C000080B1F5001F42D206460F4611F01F0FFE
:104D8C003FD1416184682CB998F80030022B01D9CD
:104D9C00D8F82440B4B9B8F80830B3EB571F32D95F
:104DAC00D8F82430F361B461F36993B303EB572360
:104DBC00F36108F13003C7F3080119443162002094
:104DCC00BDE8F081B8F80A506D0200E07F1BAF42DD
:104DDC000FD321463046FFF760FF0446B0F1FF3F8A
:104DEC0013D0012813D9D8F814308342EED80220FE
:104DFC00E6E721464046FFF79DFBF061D3E7022032
:104E0C00DEE70220DCE70220DAE70120D8E7022007
:104E1C00D6E70220D4E72DE9F041054606680F4697
:104E2C0051B9D6F80C80B8F1000F12D07369434514
:104E3C0011D84FF001080EE0FFF72FFF03460128B1
:104E4C004CD9B0F1FF3F4ED0726982424BD8B84674
:104E5C0001E04FF0010844460CE021462846FFF7DC
:104E6C001CFF034678B1B0F1FF3F18BF01283AD0C0
:104E7C00444537D001347369A342EED8B8F1010F21
:104E8C002ED90224E9E74FF0FF3221463046FFF7D6
:104E9C007DFE02463B1E18BF0123002818BF0023CD
:104EAC0073B9A2B9F46032697369023B9A4201D8B2
:104EBC00013A3261337943F001033371234612E036
:104ECC00224639463046FFF761FE0246E9E7012AE1
:104EDC0001D0012307E04FF0FF3304E0012302E08F
:104EEC00002300E000231846BDE8F081F8B50C461D
:104EFC00056801292ED9064611466B69A3422BD9A8
:104F0C004AB14FF0FF322846FFF740FE074610B17A
:104F1C0023E0A24221D9274621463046FFF7BDFEA9
:104F2C000446E0B101281CD0B0F1FF3F1BD0002299
:104F3C0039462846FFF72AFE074670B92B696A697D
:104F4C00911E8B42E5D201332B612B7943F0010387
:104F5C002B71DEE7022700E002273846F8BD002758
:104F6C00FBE70227F9E70127F7E738B504460568A0
:104F7C00C1692846FFF733FC20B9236AE5221A7071
:104F8C000123EB7038BD2DE9F04706684569C3690C
:104F9C00002B6CD0044688462035B5F5001F68D22E
:104FAC00C5F308073FB90133C361816979B9338906
:104FBC00B3EB551F07D9656106F130033B442362FF
:104FCC000020BDE8F0870023C3610420F9E7738952
:104FDC00013B13EA5529EED1FFF75FFE824601280B
:104FEC0049D9B0F1FF3F48D07369834237D8B8F143
:104FFC00000F11D0A1692046FFF70DFF8246002853
:10500C003DD001283DD0B0F1FF3F3CD03046FFF7FA
:10501C00BDFB28B10120D4E70023E3610420D0E7D5
:10502C004FF40072002106F13000FFF78BF9514666
:10503C003046FFF77FFAF062738999450BD2012352
:10504C00F3703046FFF7A2FBF8B909F10109F36AD6
:10505C000133F362F0E7F36AA3EB0903F362C4F8DC
:10506C0018A051463046FFF765FAE061A3E704202B
:10507C00A7E70420A5E70220A3E70120A1E707206A
:10508C009FE702209DE701209BE7012099E770B57F
:10509C00044606680021FFF768FE054640B1284625
:1050AC0070BD00212046FFF76EFF05460028F6D1A3
:1050BC00E1693046FFF793FB05460028EFD1206AE3
:1050CC0003787BB1C37A03F03F03A371C37A13F067
:1050DC00080FE6D10B2204F12401FFF738F9002860
:1050EC00DFD1DCE70425DAE730B583B00446019163
:1050FC000568019B1A785C2A18BF2F2A02D101334C
:10510C000193F6E70022A2601B781F2B1BD880238B
:10511C0084F82F3011462046FFF727FE0346184629
:10512C0003B030BD0428FAD112F0040FF7D10523D7
:10513C00F5E705F130016369C3F308031944284608
:10514C00FFF715FAA06001A92046FFF769FA03469C
:10515C000028E4D12046FFF79AFF94F82F2003464D
:10516C000028DFD112F0040FD9D1A37913F0100F5E
:10517C00DFD10523D3E7F8B504460E4607680021B6
:10518C00FFF7F3FD0246B8B9002506E00025012122
:10519C002046FFF7F8FE024670B9E1693846FFF782
:1051AC001EFB024640B9236A1B78002B18BFE52B67
:1051BC00ECD10135B542EAD1042A01D01046F8BD34
:1051CC000722FBE770B5044606680121FFF7D3FF01
:1051DC00054608B1284670BDE1693046FFF7FFFA75
:1051EC0005460028F6D120220021206AFFF7AAF8F4
:1051FC000B2204F12401206AFFF798F80123F370C5
:10520C00E8E7F8B504460E460568042705E00021DA
:10521C002046FFF7B8FE0746E8B9E169D9B1284640
:10522C00FFF7DDFA0746B0B9236A1A7892B1DB7A38
:10523C0003F03F03A371E52A18BF2E2AE7D00F2BEA
:10524C00E5D023F02003082B14BF00230123B34225
:10525C00DDD100E004270FB10023E3613846F8BD2F
:10526C0070B50446FFF792FA054648B92378032B2C
:10527C0008D0002211466078FFF72EF800B1012506
:10528C00284670BD2379012BF3D104F130064FF47D
:10529C00007200213046FFF755F84AF6552104F20A
:1052AC002E20FFF735F80F493046FFF735F80E4939
:1052BC0004F50570FFF730F8216904F50670FFF767
:1052CC002BF8E16804F50770FFF726F8E269013264
:1052DC00E262012331466078FEF7F2FF002323716E
:1052EC00C7E700BF525261417272416170B584B020
:1052FC00019000911646039103A8FFF7FBF9041ED9
:10530C001FDB114B53F8245025B12846FFF7F4F856
:10531C0000232B70019B0BB100221A70019B0A4ACF
:10532C0042F82430721E18BF0122002B08BF012244
:10533C0012B1002004B070BD01A96846FFF7A6FAAF
:10534C00F8E70B20F6E700BF48EF04202DE9F04307
:10535C0091B00191002800F00F811546064602F02D
:10536C003F073A4603A901A8FFF790FA044630B16B
:10537C000CB100233360204611B0BDE8F083039BD1
:10538C000493019904A8FFF7AFFE044660B99DF998
:10539C003F30002B50DB37F0010314BF01210021FB
:1053AC0004A8FEF7EBFF044615F01C0F5AD0002C96
:1053BC004ED0042C42D047F00807002C61D117F0D6
:1053CC00080F5ED0FDF7CCFF054601460C980E3059
:1053DC00FEF7A2FF29460C981630FEF79DFF0C9B9A
:1053EC002022DA72DDF80C80DDF830904946404618
:1053FC00FFF7BDF80546002249464046FFF7CAF8BC
:10540C0000210C981C30FEF787FF039B0122DA70F9
:10541C00BDB3039BD3F82C800022294604A8FFF7C8
:10542C0065FD044668BB41460398FFF7D8F904466E
:10543C00013D039BDD6024E00624B5E7FEF7DAFFAF
:10544C0008B91224B7E704A8FFF7BCFE0446B2E77C
:10545C009DF8163013F0110F12D115F0040FACD0CB
:10546C0008240EE06CB99DF8163013F0100F4CD1D7
:10547C0015F0020F05D013F0010F02D0072416E02F
:10548C000724A4B917F0080F01D047F04007039B7D
:10549C00DB6A73620C9BB36237F0010314BF01210A
:1054AC00002104A8FEF7B6FF3061002862D0002C62
:1054BC007FF45EAF039DDDF8308041462846FFF750
:1054CC0056F8B06008F11C00FEF717FFF0600021E1
:1054DC00F1623560EB88B380377571753162B161FB
:1054EC0006F130084FF400724046FEF72BFF17F020
:1054FC00200F3FF43DAFF568002D3FF439AFB56197
:10550C00039B5F897F02B16805E00424CFE7B1F10A
:10551C00FF3F10D0ED1BBD4294BF00230123002C94
:10552C0018BF00234BB13046FFF7B7FB01460128EB
:10553C00EDD80224EBE70124ECE7F161002C7FF4B9
:10554C0017AFC5F30803002B3FF412AF039F384687
:10555C00FEF7F0FF08B902240BE700EB552232628C
:10556C00012341467878FEF79FFE00283FF400AFF8
:10557C000124FEE60224FBE60924FCE62DE9F04FAB
:10558C0085B004460E46174698460023C8F80030EE
:10559C00019003A9FFF7D7F80090002840F0AE80E7
:1055AC00637D0093002B40F0A980237D13F0010F45
:1055BC0000F0C380E568A369ED1ABD4262D33D4695
:1055CC0060E0E36A1BB12046FEF7C0FF6AE0E169C8
:1055DC000198FFF762FB65E04FF0020A84F815A012
:1055EC00CDF800A08AE04FF0010A84F815A0CDF8A0
:1055FC0000A083E04FF0020A84F815A0CDF800A0BB
:10560C007CE094F91430002B02DB4FEA4A272FE0A0
:10561C00206AA0EB09005045F7D24FF4007204F158
:10562C00300106EB4020FEF781FEEEE7226A4A4588
:10563C000DD094F91430002B64DB01234A4604F19D
:10564C00300103984078FEF72FFE00286ED1C4F885
:10565C002090A369C3F30803C3F50077BD4200D2C1
:10566C002F4604F130013A4619443046FEF75EFEEF
:10567C003E44A3693B44A361D8F800303B44C8F8CE
:10568C000030ED1B002D39D0A169C1F30803002BAC
:10569C00DFD1039B5F89013F17EA512708D100290D
:1056AC008FD1A068012897D9B0F1FF3F9BD0E06162
:1056BC00DDF80CB0E1695846FEF73CFF8146002846
:1056CC0098D0B9444FEA552AB5F5007FAED307EB15
:1056DC000A03BBF80A20934201D9A2EB070A5346EE
:1056EC004A4631469BF80100FEF7DEFD002888D0C3
:1056FC004FF0010A84F815A0CDF800A0009805B071
:10570C00BDE8F08F012304F130019BF80100FEF796
:10571C00D7FD20B9237D03F07F0323758DE74FF070
:10572C00010A84F815A0CDF800A0E7E74FF0010AB4
:10573C0084F815A0CDF800A0E0E707230093DDE77F
:10574C002DE9F04F85B004460E46154698460023C9
:10575C00C8F80030019003A9FEF7F5FF009000286F
:10576C004AD1637D0093002B46D1237D13F0020FA9
:10577C0000F0E380A369EB42C0F0B180DD43AEE002
:10578C00E36A002B3CD02046FEF7E0FE002800F038
:10579C00CF80012839D0B0F1FF3F3DD0E061A36844
:1057AC0003B9A06094F91430002B3CDBDDF80CB08D
:1057BC00E1695846FEF7BEFE8146002848D0B94440
:1057CC004FEA552AB5F5007F5ED307EB0A03BBF809
:1057DC000A20934201D9A2EB070A53464A463146A6
:1057EC009BF80100FEF76CFD002838D04FF0010A41
:1057FC0084F815A0CDF800A0009805B0BDE8F08F96
:10580C00E1690198FFF707FBC0E74FF0020A84F843
:10581C0015A0CDF800A0EFE74FF0010A84F815A011
:10582C00CDF800A0E8E70123226A04F130010398C7
:10583C004078FEF745FD20B9237D03F07F032375E7
:10584C00B4E74FF0010A84F815A0CDF800A0D3E717
:10585C004FF0020A84F815A0CDF800A0CCE7216A1D
:10586C00A1EB0901514502D34FEA4A2728E04FF436
:10587C00007206EB412104F13000FEF757FD237D49
:10588C0003F07F032375EFE7236A4B4503D0A2692E
:10589C00E3689A423BD3C4F82090A369C3F308038E
:1058AC00C3F50077BD4200D22F4604F130003A46D2
:1058BC0031461844FEF73AFD237D63F07F032375D0
:1058CC003E44A3693B44A361E268934238BF13464C
:1058DC00E360D8F800303B44C8F80030ED1B3DB312
:1058EC00A169C1F30803002BD7D1039B5F89013F4A
:1058FC0017EA51277FF456AF00297FF441AFA06817
:10590C0000287FF443AF0198FFF785FA3EE70123A7
:10591C004A4604F130019BF80100FEF7C5FC002853
:10592C00B9D04FF0010A84F815A0CDF800A063E7B8
:10593C00237D43F0400323755EE7072300935BE769
:10594C0070B582B004460D460A290DD06368002B51
:10595C0008DB5E1C23441D733C2E09DC6660A368C7
:10596C000133A36002B070BD0D21FFF7E9FFEDE735
:10597C00214651F80C0B01AB3246FFF7E1FE019BBF
:10598C009E4202D04FF0FF36E8E70026E6E7426879
:10599C00002A10DB10B582B00446014651F80C0BFE
:1059AC0001ABFFF7CDFE48B96268019B9A4208D162
:1059BC00A06802B010BD4FF0FF3070474FF0FF30C1
:1059CC00F7E74FF0FF30F4E770B582B0044601A959
:1059DC00FEF7B9FE70B9237D13F0400F0AD013F017
:1059EC00800F09D1FDF7BCFC0546616A0198FEF7F2
:1059FC00F6FE78B102B070BD0123226A04F13001C9
:105A0C0001984078FEF75CFC40BB237D03F07F03DC
:105A1C002375E7E7A66AF37A43F02003F372A268D2
:105A2C0031462068FEF7B6FDE16806F11C00FEF772
:105A3C0073FC294606F11600FEF76EFC002106F1F8
:105A4C001200FEF765FC019B0122DA700198FFF74A
:105A5C0007FC237D23F040032375CBE70120C9E726
:105A6C0010B582B00446FFF7AFFF08B102B010BD0D
:105A7C0001A92046FEF767FE0028F7D12069FEF742
:105A8C001BFD0028F2D12060F0E72DE9F04F85B026
:105A9C0004460E46074603A9FEF755FE054600B917
:105AAC00657D6DB9E36A002B00F08E80B6F1FF3F87
:105ABC000AD0E768B74200D33746A761002F44D11C
:105ACC00284605B0BDE8F08F994659F8043B019380
