S01A000064656D6F70726F675F73746D3332663734362E737265638E
S3150800800000000520698900083589000837890008B5
S31508008010398900083B8900083D89000800000000EE
S315080080200000000000000000000000003F89000872
S3150800803041890008000000004389000845890008B6
S31508008040B9890008B9890008B9890008B9890008FA
S31508008050B9890008B9890008B9890008B9890008EA
S31508008060B9890008B9890008B9890008B9890008DA
S31508008070B9890008B9890008B9890008B9890008CA
S31508008080B9890008B9890008B9890008B9890008BA
S31508008090B9890008B9890008B9890008B9890008AA
S315080080A0B9890008B9890008B9890008B98900089A
S315080080B0B9890008B9890008B9890008B98900088A
S315080080C0B9890008B9890008B9890008B98900087A
S315080080D0B9890008B9890008B9890008B98900086A
S315080080E0B9890008B9890008B9890008B98900085A
S315080080F0B9890008B9890008B9890008B98900084A
S31508008100B9890008B9890008B9890008B989000839
S31508008110B9890008B9890008B9890008B989000829
S31508008120B9890008B9890008B9890008B989000819
S31508008130B9890008B9890008B9890008B989000809
S31508008140B9890008B9890008B9890008B9890008F9
S31508008150B9890008B9890008B9890008B9890008E9
S31508008160B9890008B9890008B9890008B9890008D9
S31508008170B9890008B9890008B98900080000000013
S31508008180B9890008B9890008B9890008B9890008B9
S31508008190B9890008B9890008B9890008B9890008A9
S315080081A0B9890008B9890008B9890008B989000899
S315080081B0B9890008B9890008B9890008B989000889
S311080081C0B9890008B9890008EE11AA5513
S315080081CC10B5054C237833B9044B13B10448AFF3F7
S315080081DC00800123237010BD0C0000200000000055
S315080081EC5496000808B5034B1BB103490348AFF373
S315080081FC008008BD000000001000002054960008FE
S3150800820C53B94AB9002908BF00281CBF4FF0FF31E3
S3150800821C4FF0FF3000F06EB9ADF1080C6DE904CEE5
S3150800822C00F006F8DDF804E0DDE9022304B0704737
S3150800823C2DE9F047089D04468C46002B40F08380B8
S3150800824C8A42174647D9B2FA82F242B1C2F12000E5
S3150800825C24FA00F09140974040EA010C94404FEA0A
S3150800826C1748230CBCFBF8F61FFA87FE08FB16C149
S3150800827C43EA014306FB0EF1994209D9FB1806F1AC
S3150800828CFF3080F01981994240F21681023E3B4438
S3150800829C5B1AA4B2B3FBF8F008FB103344EA0344A8
S315080082AC00FB0EFEA64509D93C1900F1FF3380F0F8
S315080082BC0581A64540F2028102383C4440EA064054
S315080082CCA4EB0E0400261DB1D4400023C5E90043D7
S315080082DC3146BDE8F08702B9FFDEB2FA82F2002A0F
S315080082EC50D1CB1B4FEA174E1FFA87F80126B3FB62
S315080082FCFEFC210C0EFB1C3341EA034108FB0CF374
S3150800830C8B4207D979180CF1FF3002D28B4200F256
S3150800831CE9808446C91AA3B2B1FBFEF00EFB101114
S3150800832C43EA014408FB00F8A04507D93C1900F1BB
S3150800833CFF3302D2A04500F2D9801846A4EB0804F4
S3150800834C40EA0C40BFE78B4209D9002D00F0B180FA
S3150800835C0026C5E9000130463146BDE8F087B3FA78
S3150800836C83F6002E4AD18B4202D3824200F2B880A1
S3150800837C841A61EB030101208C46002DA8D0C5E9AF
S3150800838C004CA5E7C2F1200320FA03F6974001FA40
S3150800839C02F04FEA174ED9403043030CB1FBFEF6F8
S315080083AC1FFA87F80EFB161143EA014306FB08F180
S315080083BC994204FA02F409D9FB1806F1FF3C80F03D
S315080083CC8D80994240F28A80023E3B445B1A81B208
S315080083DCB3FBFEF00EFB103341EA034100FB08F336
S315080083EC8B4207D9791800F1FF3C73D28B4271D9AD
S315080083FC02383944CB1A40EA064678E7C6F1200C0F
S3150800840C03FA06F422FA0CF31C4320FA0CF701FAC9
S3150800841C06F34FEA144E21FA0CF11F433B0CB1FB41
S3150800842CFEF91FFA84F80EFB191143EA014109FB00
S3150800843C08FA8A4502FA06F200FA06F308D9611810
S3150800844C09F1FF3048D28A4546D9A9F102092144D7
S3150800845CA1EB0A01BFB2B1FBFEF00EFB101147EA05
S3150800846C014700FB08F8B84507D9E71900F1FF31B1
S3150800847C2ED2B8452CD90238274440EA0940A7EB36
S3150800848C0807A0FB02894F45C64649461AD317D09A
S3150800849C5DB1B3EB0E0267EB010707FA0CFCF24071
S315080084AC4CEA0202F740C5E9002700263146BDE82A
S315080084BCF0872E4628460BE70646E9E61846FDE6FB
S315080084CC4345E5D2B8EB020E69EB04010138DFE748
S315080084DC0846D2E760468DE78146B9E7664675E7F2
S315080084EC30464AE7ACF1020C394413E702383C44EF
S315080084FC24E700BF704700BF08B500F0C9F800F0C4
S3150800850C95F800F02DF808BD08B500F099F800F0BC
S3150800851C89F808BD08B50948094B03604FF461434F
S3150800852C436000238360C36003610C22426183614C
S3150800853CC3610362436200F094FF08BD2800002063
S3150800854C0048004008B5014600230122034800F004
S3150800855CBFFE08B1002008BD0120FCE7280000205A
S3150800856C08B5FFF7D7FF08BDBFF34F8F0549CA6893
S3150800857C02F4E062044B1343CB60BFF34F8F00BF8A
S3150800858CFDE700BF00ED00E00400FA0508B5214B35
S3150800859C1B78B3B92048FFF7D5FF012800D008BDD2
S315080085AC1D4B1B78013BDBB23F2BF8D800F071F85A
S315080085BC1A4B1860174B01221A70194B00221A70A5
S315080085CCEDE7174B1B78013313481844FFF7BAFF2E
S315080085DC012813D1124A13780133DBB213700E4AF1
S315080085EC12789342DBD10B4A002111700A4A527851
S315080085FCFF2AD4D1022BD2D1FFF7B6FF00F049F8E7
S3150800860C064B1B6864339842C9D9024B00221A7070
S3150800861CC5E700BFE9000020A8000020EC000020F8
S3150800862CEA00002008B5FFF7B1FF08BD08B500221F
S3150800863C4FF48051014800F049FB08BD000C02407C
S3150800864C10B500F026F80F4B1B68C31AB3F5FA7F62
S3150800865C0DD304460C4B1B7853B901220A4B1A70DE
S3150800866C4FF48051094800F031FB064B1C6010BDD5
S3150800867C0022054B1A704FF48051044800F026FB73
S3150800868CF3E700BFF4000020F0000020000C0240C5
S3150800869C704708B500F0CAF908BD0000014A024B3C
S315080086AC9A6070470080000800ED00E070B58AB04B
S315080086BC00240694079408940994204B1A6B42F0EC
S315080086CC04021A631A6B02F004020392039A1A6BD9
S315080086DC42F080021A631A6B02F080020292029A26
S315080086EC1A6B42F008021A631A6B02F0080201921E
S315080086FC019A1A6B42F001021A631B6B03F0010311
S3150800870C0093009B0E4D4FF08053AB614FF4005312
S3150800871C049305940126089604A90A4800F0D2FE8B
S3150800872C4FF480530493059606940794089404A969
S3150800873C284600F0C7FE0AB070BD00BF00380240DC
S3150800874C000C02400008024008B50948094B0360B2
S3150800875C4FF4E133436000238360C36003610C224A
S3150800876C42618361C3610362436200F07AFE08BD0D
S3150800877CFC040020004C004008B5334A136823F06B
S3150800878C0F0343F0070313602F4B1B6803F00F030B
S3150800879C072BF9D12D4B1A6842F440421A601A6815
S315080087AC42F480321A602A4A136843F48033136001
S315080087BC274B1B6813F4003FFAD0254B5A682549FA
S315080087CC1140254A0A435A605A6824491140244ADA
S315080087DC0A435A601A6842F080721A601C4B1B686E
S315080087EC13F0007FFAD01A4B9A6822F0F0029A60BE
S315080087FC9A6822F4E05242F4A0529A609A6822F4DB
S3150800880C604242F400429A609A6822F0030242F0EF
S3150800881C02029A600E4B9B6803F00C03082BF9D1E5
S3150800882C104800F0E7FE002000F0C2F8084BD3F819
S3150800883C902022F00062C3F89020D3F8902022F002
S3150800884CC002C3F8902008BD003C024000700040EE
S3150800885C003802400080BCFF196C40000080BFF055
S3150800886C196C400900E6DF0C08B5FFF717FF00F096
S3150800887CC5F8FFF781FFFFF719FFFFF765FFFFF74D
S3150800888C3BFEFFF741FEFCE782B00A4B1A6C42F03E
S3150800889C80521A641A6C02F080520092009A5A6C32
S315080088AC42F480425A645B6C03F480430193019B47
S315080088BC02B070470038024000B589B00023039314
S315080088CC04930593069307930268154B9A4202D0B4
S315080088DC09B05DF804FB03F5F6331A6C42F4002272
S315080088EC1A641A6C02F400220192019A1A6B42F06D
S315080088FC04021A631B6B03F004030293029B4FF4E6
S3150800890C40630393022304930023059303230693DE
S3150800891C0823079303A9034800F0E8F8D8E700BF33
S3150800892C004C0040000802407047FEE7FEE7FEE7F1
S3150800893CFEE770477047704708B500F06BF808BD3E
S3150800894C054BD3F8882042F47002C3F888204FF000
S3150800895C00629A60704700BF00ED00E0DFF834D083
S3150800896C002103E00C4B5B58435004310B480C4B6D
S3150800897C42189A42F6D30B4A02E0002342F8043B0B
S3150800898C094B9A42F9D3FFF7DBFF00F039FEFFF7E4
S3150800899C6BFF704700000520849600080000002035
S315080089AC0C0000200C00002080050020FEE70000CB
S315080089BC10B504460E4B18784FF47A73B3FBF0F3E4
S315080089CC0C4A1068B0FBF3F000F07AF868B90F2C73
S315080089DC01D901200AE0002221464FF0FF3000F0B1
S315080089EC3DF8054B1C60002000E0012010BD00BFBF
S315080089FC04000020000000200800002008B5032011
S31508008A0C00F01AF80020FFF7D3FFFFF73DFF002010
S31508008A1C08BD0000034A1168034B1B780B4413600E
S31508008A2C704700BF7C05002004000020014B186825
S31508008A3C704700BF7C0500200649CB6823F4E06329
S31508008A4C1B041B0C000200F4E0600343024A1A43A1
S31508008A5CCA60704700ED00E00000FA0530B4154B0B
S31508008A6CDB68C3F30223C3F10704042C28BF0424D0
S31508008A7C1D1D062D14D9033B4FF0FF3505FA04F4DA
S31508008A8C21EA0401994005FA03F322EA0303194380
S31508008A9C002807DB0901C9B2074B195430BC7047CB
S31508008AAC0023E9E700F00F000901C9B2034B19547A
S31508008ABCF4E700BF00ED00E000E400E014ED00E090
S31508008ACC0138B0F1807F0AD2064B5860064AF0216D
S31508008ADC82F823100020986007221A60704701203C
S31508008AEC704700BF10E000E000ED00E000230F2BFC
S31508008AFC00F2E380F0B583B039E0092200E00022E9
S31508008B0CB2403A4302346D4E46F824206C4A146837
S31508008B1CEA4324EA05064F6817F4803F01D045EA74
S31508008B2C0406674C2660646802EA04064F6817F464
S31508008B3C003F01D045EA0406614C6660A46802EA67
S31508008B4C04064F6817F4801F01D045EA04065C4CEE
S31508008B5CA660E46822404E6816F4001F01D045EA68
S31508008B6C0402574CE26001330F2B00F2A480012259
S31508008B7C9A400C6804EA020532EA0404F3D14C68FC
S31508008B8C661E112C18BF012E01D9122C12D186681B
S31508008B9C5F000324BC4026EA0406CC68BC40344378
S31508008BAC8460466826EA02064C68C4F300129A40AA
S31508008BBC32434260C7685E000324B440E24327EAA6
S31508008BCC04078C68B4403C43C4604C68122C18BF2C
S31508008BDC022C13D1DF08083750F827E003F00704F6
S31508008BEC4FEA840C0F2404FA0CF42EEA040E0C69D2
S31508008BFC04FA0CF444EA0E0440F8274004681440BE
S31508008C0C4A6802F00302B240224302604A6812F034
S31508008C1C805FA8D02B4A546C44F480445464526C3C
S31508008C2C02F480420192019A9C08A61C234A52F827
S31508008C3C267003F0030296000F22B24027EA0207B9
S31508008C4C214A90423FF45BAF02F58062904222D0F3
S31508008C5C02F58062904220D002F5806290421ED0C6
S31508008C6C02F5806290421CD002F5806290421AD0BE
S31508008C7C02F58062904218D002F58062904216D0B6
S31508008C8C02F58062904214D002F5806290423FF45D
S31508008C9C34AF0A2234E7012232E7022230E70322F4
S31508008CAC2EE704222CE705222AE7062228E70722C4
S31508008CBC26E7082224E703B0F0BD704700380140C8
S31508008CCC003C014000380240000002400AB18161B4
S31508008CDC7047090481617047F8B5244B9B6803F00B
S31508008CEC0C03042B3DD0082B3DD1204B5A6802F0BF
S31508008CFC3F025B6813F4800F12D01C4B5968C1F302
S31508008D0C881100231A48A1FB0001FFF779FA174BC3
S31508008D1C5B68C3F3014301335B00B0FBF3F023E05C
S31508008D2C124B5B68C3F388135C010025E41A65F1E2
S31508008D3C0005AE0146EA9466A701381B66EB0501E9
S31508008D4CCC0044EA5074C500E81844F100018B02C3
S31508008D5C43EA90538402204619460023FFF750FA3B
S31508008D6CD5E7034800E00348F8BD00BF00380240C9
S31508008D7C40787D010024F400014B1868704700BF49
S31508008D8C0000002008B5FFF7F7FF044B9B68C3F3F8
S31508008D9C8223034AD35CD84008BD00BF0038024082
S31508008DAC6C96000808B5FFF7E7FF044B9B68C3F3FE
S31508008DBC4233034AD35CD84008BD00BF0038024092
S31508008DCC6C96000838B504468368026913434269F1
S31508008DDC1343C2691343016808689F4A0240134348
S31508008DEC0B602268536823F44053E1680B435360C5
S31508008DFCA269236A1A4321688B6823F430631343E8
S31508008E0C8B602368954A934219D0954A934229D088
S31508008E1C944A93423ED0944A934262D0934A9342E0
S31508008E2C71D0934A934200F08380924A934200F0A1
S31508008E3C9480914A934200F0A58010253AE08F4B16
S31508008E4CD3F8903003F00303032B09D8DFE803F0BB
S31508008E5C0204AE0601252DE004252BE0082529E0A1
S31508008E6C102527E0854BD3F8903003F00C030C2B18
S31508008E7C0ED8DFE803F0070D0D0D090D0D0D9D0D30
S31508008E8C0D0D0B00002515E0042513E0082511E04F
S31508008E9C10250FE0794BD3F8903003F03003202BD4
S31508008EAC00F0888019D8002B00F08680102B40F033
S31508008EBC85800425E369B3F5004F00F0AB80082DD7
S31508008ECC00F24081DFE815F00701180122013E0186
S31508008EDC2B013E013E013E013501302B70D1082590
S31508008EECE8E7664BD3F8903003F0C003802B69D0C3
S31508008EFC05D8002B68D0402B68D10425DAE7C02B9F
S31508008F0C66D10825D6E75D4BD3F8903003F4407349
S31508008F1CB3F5007F5ED006D8002B5DD0B3F5807F05
S31508008F2C5CD10425C6E7B3F5407F59D10825C1E7BE
S31508008F3C524BD3F8903003F44063B3F5006F51D01D
S31508008F4C06D8002B50D0B3F5806F4FD10425B1E766
S31508008F5CB3F5406F4CD10825ACE7484BD3F89030A5
S31508008F6C03F44053B3F5005F44D006D8002B43D026
S31508008F7CB3F5805F42D104259CE7B3F5405F3FD13A
S31508008F8C082597E73D4BD3F8903003F44043B3F5E7
S31508008F9C004F37D005D8BBB3B3F5804F36D104256F
S31508008FAC88E7B3F5404F33D1082583E7022581E7D7
S31508008FBC02257FE702257DE700257BE7102579E763
S31508008FCC102577E7022575E7002573E7102571E765
S31508008FDC10256FE702256DE700256BE7102569E775
S31508008FEC102567E7022565E7012563E7102561E784
S31508008FFC10255FE702255DE700255BE7102559E795
S3150800900C102557E7022555E7002553E7102551E7A4
S3150800901C10254FE7082D5BD8DFE805F005323D5AD9
S3150800902C465A5A5A5100FFF7ADFE6268530803EBCD
S3150800903C4003B3FBF2F39BB2A3F110014FF6EF72A8
S3150800904C914200F282809AB222F00F02C3F34203D5
S3150800905C13432268D3607BE0F369FFEF00100140ED
S3150800906C0044004000480040004C004000500040BE
S3150800907C0014014000780040007C00400038024093
S3150800908CFFF790FE6268530803EB4003B3FBF2F359
S3150800909C9BB20025D0E76268304B03EB5203B3FB57
S315080090ACF2F39BB20025C7E7FFF716FE6268530872
S315080090BC03EB4003B3FBF2F39BB20025BCE76268F3
S315080090CC530803F58033B3FBF2F39BB20025B3E7E1
S315080090DC01250023B0E7FFF755FE626800EB520343
S315080090ECB3FBF2F39BB2A3F110014FF6EF72914268
S315080090FC2DD82268D3602BE0FFF754FE626800EB8C
S3150800910C5203B3FBF2F39BB20025ECE76268144BEF
S3150800911C03EB5203B3FBF2F39BB20025E3E7FFF72D
S3150800912CDBFD626800EB5203B3FBF2F39BB200253E
S3150800913CD9E76268530803F50043B3FBF2F39BB215
S3150800914C0025D0E701250023CDE7012500E0012500
S3150800915C002323666366284638BD00BF0048E8012D
S3150800916C0024F400436A13F0010F06D00268536812
S3150800917C23F40033816A0B435360436A13F0020FDE
S3150800918C06D00268536823F48033C16A0B435360D4
S3150800919C436A13F0040F06D00268536823F480233D
S315080091AC016B0B435360436A13F0080F06D0026831
S315080091BC536823F40043416B0B435360436A13F023
S315080091CC100F06D00268936823F48053816B0B4307
S315080091DC9360436A13F0200F06D00268936823F451
S315080091EC0053C16B0B439360436A13F0400F0AD0CC
S315080091FC0268536823F48013016C0B435360036CA9
S3150800920CB3F5801F0BD0436A13F0800F06D00268A3
S3150800921C536823F40023816C0B4353607047026830
S3150800922C536823F4C003416C0B435360EBE72DE9F9
S3150800923CF84305460F4616469946DDF820802C68F5
S3150800924CE46937EA04030CBF01240024B4423CD178
S3150800925CB8F1FF3FF3D0FFF7E9FBA0EB0900404557
S3150800926C21D8B8F1000F1ED02B681A6812F0040F1B
S3150800927CE5D0DA6912F4006FE1D04FF400621A6295
S3150800928C2A68136823F4D07313602A68936823F04A
S3150800929C0103936020236B67AB67EB67002385F8A4
S315080092AC7030032012E02A68136823F4D073136015
S315080092BC2A68936823F00103936020236B67AB67D6
S315080092CC002385F87030032000E00020BDE8F88301
S315080092DC2DE9F04383B01E46836F202B40F0818026
S315080092EC04460D469046B2FA82F35B09002908BF7C
S315080092FC0123002B79D190F87030012B77D00123FC
S3150800930C80F870300023C36722238367FFF78EFB30
S3150800931C0746A4F85880A4F85A80A368B3F5805F6A
S3150800932C06D0A3B9226972B9FF22A4F85C2014E00E
S3150800933C226922B940F2FF12A4F85C200DE0FF2244
S3150800934CA4F85C2009E07F22A4F85C2005E0B3F1C0
S3150800935C805F0DD00022A4F85C20B4F85C80B3F5CD
S3150800936C805F0FD04FF00009002384F870301EE0A0
S3150800937C22691AB97F22A4F85C20EEE73F22A4F8EA
S3150800938C5C20EAE7236913B14FF00009ECE7A9461C
S3150800939C0025E9E723685B6A08EA030329F8023B18
S315080093ACB4F85A2092B2013A92B2A4F85A20B4F8F8
S315080093BC5A309BB28BB100963B46002220212046A0
S315080093CCFFF735FFA8B9002DE4D023685A6A5FFA6F
S315080093DC88F3134005F8013BE2E72023A367002036
S315080093EC00E0022003B0BDE8F0830120FAE7022072
S315080093FCF8E70320F6E730B583B004460023C367C5
S3150800940CFFF714FB054623681B6813F0080F0CD1ED
S3150800941C23681B6813F0040F15D120236367A36711
S3150800942C002084F8700003B030BD6FF07E430093C3
S3150800943C034600224FF400112046FFF7F8FE0028D9
S3150800944CE6D00320EFE76FF07E4300932B4600220D
S3150800945C4FF480012046FFF7EAFE0028DDD00320F2
S3150800946CE1E768B310B50446436F03B32423636777
S3150800947C2268136823F0010313602046FFF7A2FC49
S3150800948C012813D0636ABBB92268536823F4904346
S3150800949C53602268936823F02A0393602268136842
S315080094AC43F0010313602046FFF7A5FF10BD80F8B3
S315080094BC7030FFF701FAD9E72046FFF753FEE3E7CA
S315080094CC01207047F0B40C6894FAA4F4B4FA84F446
S315080094DC4BE08E68826893FAA3F5B5FA85F56D00AC
S315080094EC032707FA05F522EA050293FAA3F5B5FA56
S315080094FC85F56D0006FA05F52A4382600E68CD6877
S3150800950C426822EA060205FB06F52A4342600E6902
S3150800951CC26893FAA3F5B5FA85F56D00032707FA21
S3150800952C05F522EA050293FAA3F5B5FA85F56D0059
S3150800953C06FA05F52A43C2604A68022A22D04A6806
S3150800954C056893FAA3F6B6FA86F67600032707FAA1
S3150800955C06F625EA060593FAA3F3B3FA83F35B003A
S3150800956C02FA03F32B43036001340B6833FA04F253
S3150800957C3CD00122A2401340F6D04A68013A012A8F
S3150800958CC5D8A6E793FAA3F2B2FA82F2072A15D837
S3150800959C4E69026A93FAA3F5B5FA85F5AD000F275D
S315080095AC07FA05F522EA050293FAA3F5B5FA85F545
S315080095BCAD0006FA05F52A430262C0E74D69466A0C
S315080095CC1A0A92FAA2F7B7FA87F7BF004FF00F0CF0
S315080095DC0CFA07F726EA070692FAA2F2B2FA82F210
S315080095EC920005FA02F232434262A8E70020F0BC68
S315080095FC70470000014B1860704700BF0000002040
S3150800960C70B50D4D0D4C641BA4100026A64209D14D
S3150800961C0B4D0C4C00F018F8641BA4100026A6423F
S3150800962C05D170BD55F8043B98470136EEE755F859
S3150800963C043B98470136F2E77C9600087C960008AE
S3150800964C7C96000880960008F8B500BFF8BC08BCE4
S3150800965C9E467047F8B500BFF8BC08BC9E467047D6
S30D0800966C0000000001020304DE
S30D08009674C8EBFF7F01000000AE
S3090800967CF181000862
S30908009680CD81000882
S311080096840024F4000100000010000000A3
S7050800896900
